:1000000013C025C024C023C022C021C020C01FC0EF
:100010001EC01DC01CC01BC01AC019C018C017C00C
:1000200016C015C014C013C011241FBECFEFD2E0FC
:10003000DEBFCDBF11E0A0E0B1E0E4E3F4E002C038
:1000400005900D92A032B107D9F7D4D1F1C1D8CF24
:10005000672B09F073C08A30910511F42898089530
:100060008B30910511F4299808958C30910511F485
:100070002A9808958D30910511F42B9808958E30AB
:10008000910511F42C9808958F30910511F42D9855
:1000900008958031910511F42E98089581319105CC
:1000A00011F42F9808958431910511F44098089522
:1000B0008531910511F4419808958631910511F427
:1000C000429808958731910511F443980895883135
:1000D000910511F4449808958931910511F44598DA
:1000E00008958A31910511F4469808958E3191054D
:1000F00011F4589808958F31910511F45998089585
:100100008032910511F45A9808958132910511F4C5
:100110005B9808958232910511F45C9808958332BA
:10012000910511F45D9808958432910511F45E985B
:100130000895859709F073C05F9808958A309105F6
:1001400011F4289A08958B30910511F4299A089595
:100150008C30910511F42A9A08958D30910511F48F
:100160002B9A08958E30910511F42C9A08958F30B2
:10017000910511F42D9A08958031910511F42E9A6C
:1001800008958131910511F42F9A089584319105D4
:1001900011F4409A08958531910511F4419A08951A
:1001A0008631910511F4429A08958731910511F431
:1001B000439A08958831910511F4449A089589313C
:1001C000910511F4459A08958A31910511F4469AE2
:1001D00008958E31910511F4589A08958F31910543
:1001E00011F4599A08958032910511F45A9A08959C
:1001F0008132910511F45B9A08958232910511F4D0
:100200005C9A08958332910511F45D9A08958432C1
:10021000910511F45E9A0895859709F45F9A0895FF
:10022000CF93C82F80FF06C061E070E081E290E0CC
:100230000FDF05C060E070E081E290E009DFC1FF00
:1002400006C061E070E082E290E002DF05C060E09D
:1002500070E082E290E0FCDEC2FF06C061E070E088
:1002600082E090E0F5DE05C060E070E082E090E0C2
:10027000EFDEC3FF06C061E070E083E090E0E8DEFF
:1002800005C060E070E083E090E0E2DECF91089589
:10029000CF93C82F60E070E08BE190E0D9DE8C2F27
:1002A000BFDF61E070E080E090E0D2DE8FEC97E0AD
:1002B0000197F1F700C0000060E070E080E090E09E
:1002C000C7DE8FEC97E00197F1F700C00000CF91F7
:1002D000089580E0DDDF81E0DBDF0895CF93C62F56
:1002E000813049F480E8860F82958F70D1DF8C2FA2
:1002F0008F70CEDF0AC0823041F480EC860F829589
:100300008F70C6DF8C2F8F70C3DFCF91089580E090
:1003100087DF8FE39CE90197F1F700C0000083E0DD
:10032000B7DF8FE097E20197F1F700C0000083E0AC
:10033000AFDF8FEE95E50197F1F700C0000083E095
:10034000A7DF82E0A5DF82E0A3DF88E0A1DF80E015
:100350009FDF8CE09DDF80E09BDF86E099DF0895E2
:10036000CF93C82F61E070E08BE190E071DE8C2FBD
:1003700082958F7055DF61E070E080E090E068DE8C
:100380008FEC97E00197F1F700C0000060E070E0AB
:1003900080E090E05DDE8FEC97E00197F1F700C020
:1003A00000008C2F8F703CDF61E070E080E090E017
:1003B0004FDE8FEC97E00197F1F700C0000060E09E
:1003C00070E080E090E044DE8FEC97E00197F1F779
:1003D00000C00000CF910895CF93DF93EC01888196
:1003E000882329F02196BCDF89918111FCCFDF9110
:1003F000CF9108958DE08DB980E887B988E18AB9F9
:1004000086DF67DF60E081E069DF80E091E0E4DFC4
:1004100060E082E063DF80E191E0DEDF2FEF8DE3DB
:1004200099E4215080409040E1F700C00000FFCFE8
:04043000F894FFCF6E
:10043400456E672E20436F6D702E205546534D0038
:10044400202048656C6C6F20576F726C642020000C
:00000001FF
