:1000000013C01AC019C018C017C016C015C014C03C
:1000100013C012C011C010C00FC00EC00DC00CC064
:100020000BC00AC009C008C011241FBECFEFD2E028
:10003000DEBFCDBF02D024C0E3CF80E484B917B8BF
:100040002A9A589A2E981A990CC02FEF81EE94E0B4
:10005000215080409040E1F700C000001A9BFECF85
:100060002E9A4899F0CF2FEF81EE94E021508040F6
:100070009040E1F700C00000489BFECF2E98E3CFF0
:04008000F894FFCF22
:00000001FF
