:10000000BDC0D7C0D6C0D5C0D4C0D3C0D2C0D1C067
:10001000D0C0CFC0CEC0CDC0CCC0CBC0CAC0C9C07C
:10002000C8C0C7C0C6C0C5C008000000BE922449F1
:10003000123EABAAAA2ABECDCCCC4C3E000000801A
:10004000BEABAAAAAA3E00000000BF000000803F8D
:100050000000000000084178D3BB4387D1133D194D
:100060000E3CC3BD4282AD2B3E68EC8276BED98F7A
:10007000E1A93E4C80EFFFBE01C4FF7F3F000000BE
:10008000000000407A10F35A00A0724E18090010C8
:10009000A5D4E80000E87648170000E40B540200FD
:1000A00000CA9A3B000000E1F50500008096980028
:1000B000000040420F000000A08601000000102751
:1000C00000000000E80300000000640000000000E1
:1000D0000A00000000000100000000002C76D88813
:1000E000DC674F0823DFC1DFAE59E1B1B796E5E326
:1000F000E453C63AE651997696E8E6C28426EB893F
:100100008C9B62ED407C6FFCEFBC9C9F40F2BAA5DB
:100110006FA5F490055A2AF75C936B6CF9676DC173
:100120001BFCE0E40D47FEF520E6B500D0ED902E77
:100130000300943577050080841E080000204E0AD5
:10014000000000C80C333333330F986E1283114113
:10015000EF8D2114893BE65516CFFEE6DB18D184DE
:100160004B381BF77C1D901DA4BBE4242032847205
:100170005E228100C9F124ECA1E53D2711241FBEB8
:10018000CFEFD2E0DEBFCDBF11E0A0E0B1E0EEE105
:10019000FFE102C005900D92AC3DB107D9F722E016
:1001A000ACEDB1E001C01D92A830B207E1F7BAD6BC
:1001B000B4CE26CF672B09F08BC0009711F470984E
:1001C00008958130910511F4719808958230910558
:1001D00011F4729808958330910511F4739808957D
:1001E0008A30910511F4289808958B30910511F407
:1001F000299808958C30910511F42A9808958D302E
:10020000910511F42B9808958E30910511F42C98D6
:1002100008958F30910511F42D980895803191053E
:1002200011F42E9808958131910511F42F980895B5
:100230008431910511F4409808958531910511F4A8
:10024000419808958631910511F4429808958731B7
:10025000910511F4439808958831910511F444985B
:1002600008958931910511F4459808958A319105D1
:1002700011F4469808958B31910511F4479808952B
:100280008E31910511F4589808958F31910511F42C
:10029000599808958032910511F45A980895813241
:1002A000910511F45B9808958232910511F45C98E0
:1002B00008958332910511F45D9808958432910573
:1002C00011F45E980895859709F08BC05F980895A2
:1002D000009711F4709A08958130910511F4719A84
:1002E00008958230910511F4729A08958330910532
:1002F00011F4739A08958A30910511F4289A08959B
:100300008B30910511F4299A08958C30910511F4E0
:100310002A9A08958D30910511F42B9A08958E3004
:10032000910511F42C9A08958F30910511F42D9AAE
:1003300008958031910511F42E9A08958131910527
:1003400011F42F9A08958431910511F4409A08957B
:100350008531910511F4419A08958631910511F482
:10036000429A08958731910511F4439A089588318E
:10037000910511F4449A08958931910511F4459A33
:1003800008958A31910511F4469A08958B319105AB
:1003900011F4479A08958E31910511F4589A0895F1
:1003A0008F31910511F4599A08958032910511F415
:1003B0005A9A08958132910511F45B9A0895823218
:1003C000910511F45C9A08958332910511F45D9AB8
:1003D00008958432910511F45E9A0895859709F481
:1003E0005F9A0895CF93C82F80FF03C061E070E04B
:1003F00002C060E070E080E090E0DCDEC1FF03C09E
:1004000061E070E002C060E070E081E090E0D2DE88
:10041000C2FF03C061E070E002C060E070E082E013
:1004200090E0C8DEC3FF03C061E070E002C060E09E
:1004300070E083E090E0BEDEC4FF03C061E070E0E6
:1004400002C060E070E081E290E0B4DEC5FF03C06E
:1004500061E070E002C060E070E082E290E0AADE5D
:10046000C6FF03C061E070E002C060E070E082E0BF
:1004700090E0A0DEC7FF03C061E070E002C060E072
:1004800070E083E090E0CF9195CECF93C82F60E0ED
:1004900070E08BE190E08EDE8C2FA4DF61E070E0F5
:1004A00080E090E087DE8FEC97E00197F1F700C0E5
:1004B000000060E070E080E090E07CDE8FEC97E090
:1004C0000197F1F700C00000CF91089581E0DDCFE2
:1004D000813011F480E803C0823019F480EC860F7B
:1004E000D4CF089560E070E08BE190E063DE60E0DF
:1004F00070E080E090E05EDE8FE39CE90197F1F729
:1005000000C0000080E3C1DF8FE097E20197F1F7C0
:1005100000C0000080E3B9DF8FEC97E00197F1F7AE
:1005200000C0000080E3B1DF8FE19EE40197F1F7A6
:1005300000C0000088E3A9DF8CE0A7DF81E0A5DF31
:1005400086E0A3CFCF93C82F61E070E08BE190E00D
:1005500031DE8C2F47DF61E070E080E090E02ADE42
:100560008FEC97E00197F1F700C0000060E070E0C9
:1005700080E090E01FDE8FEC97E00197F1F700C07C
:100580000000CF910895CF93DF93EC0189918823E8
:1005900011F0D8DFFBCFDF91CF9108958CE175CFBB
:1005A00088E173CFCF93C82F80FF03C061E070E074
:1005B00002C060E070E081E290E0FCDDC1FF03C0BA
:1005C00061E070E002C060E070E082E290E0F2DDA5
:1005D000C2FF03C061E070E002C060E070E082E052
:1005E00090E0E8DDC3FF03C061E070E002C060E0BE
:1005F00070E083E090E0CF91DDCDCF93C82F60E035
:1006000070E08BE190E0D6DD8C2FCCDF61E070E014
:1006100080E090E0CFDD8FEC97E00197F1F700C02C
:10062000000060E070E080E090E0C4DD8FEC97E0D7
:100630000197F1F700C00000CF910895CF93C82F24
:1006400080E88C0F8595859585958595D6DF8C2FCF
:100650008F70CF91D2CF80E0D0DF81E0CECFCF932B
:10066000813019F4862FCF91E9CF823061F4C62F03
:1006700080EC860F8595859585958595BEDF8C2FB9
:100680008F70CF91BACFCF91089580E08BDF8FE349
:100690009CE90197F1F700C0000083E0AEDF8FE036
:1006A00097E20197F1F700C0000083E0A6DF8FEE2C
:1006B00095E50197F1F700C0000083E09EDF82E03E
:1006C0009CDF82E09ADF88E098DF80E096DF8CE0B4
:1006D00094DF80E092DF86E090CFCF93C82F61E077
:1006E00070E08BE190E066DD8C2F85958595859592
:1006F000859558DF61E070E080E090E05BDD8FEC95
:1007000097E00197F1F700C0000060E070E080E042
:1007100090E050DD8FEC97E00197F1F700C000000A
:100720008C2F8F703FDF61E070E080E090E042DD71
:100730008FEC97E00197F1F700C0000060E070E0F7
:1007400080E090E037DD8FEC97E00197F1F700C093
:100750000000CF910895CF93DF93EC018991882316
:1007600011F0BBDFFBCFDF91CF91089581E045DF32
:100770008CE043CF81E041DF88E03FCFEAE7F0E063
:1007800080818760808380818068808308958770FE
:1007900080937C0080917C00806480937C008091B9
:1007A0007C008F7D80937C0080917A0080648093B0
:1007B0007A0080917A0084FFFCCF809178002091AC
:1007C000790090E0922B08951092B90080E2809316
:1007D000B800089594EA9093BC009091BC0097FFF4
:1007E000FCCF9091B900987F983091F48093BB0032
:1007F00084E88093BC008091BC0087FFFCCF80918F
:10080000B900887F883131F0803231F083E008957B
:1008100080E0089581E0089582E0089594EA90933D
:10082000BC009091BC0097FFFCCF9091B900987FDD
:10083000903191F48093BB0084E88093BC00809158
:10084000BC0087FFFCCF8091B900887F803431F0F5
:10085000803231F083E0089580E0089581E00895CA
:1008600082E0089584E98093BC008091BC0084FDFF
:10087000FCCF08951F93CF93DF93C82FD4EA14E8D9
:10088000D093BC008091BC0087FFFCCF8091B90061
:10089000887F8830A9F7C093BB001093BC0080917B
:1008A000BC0087FFFCCF8091B900887F883111F0B0
:1008B000D9DFE6CFDF91CF911F9108958093BB00E0
:1008C00084E88093BC008091BC0087FFFCCF8091BE
:1008D000B900887F883221F0803321F082E00895CA
:1008E00080E0089581E0089584EC8093BC008091BD
:1008F000BC0087FFFCCF8091BB0090E0089584E8A6
:100900008093BC008091BC0087FFFCCF8091BB002E
:1009100090E0089585FB882780F90895CF93C82F2C
:1009200080ED58DF8C2FCADF81ED78DFDDDF90931B
:10093000FD018093FC01D8DF9093FF018093FE01BD
:10094000DEDF9093010280930002CF918BCFCF9393
:10095000C82F80ED3FDF8C2FB1DF81ED5FDFC4DF7B
:100960009093050280930402BFDF90930702809367
:100970000602BADF9093FB018093FA01C0DF9093E7
:10098000030280930202CF916DCF1F93CF93DF9329
:10099000D62F142FC82FC22B80ED1CDF80E08EDFF6
:1009A000812F8CDF8D2F8ADF8C2F88DFDF91CF9115
:1009B0001F9158CF0F931F93CF93DF93082F162FBC
:1009C000D42FC22F80ED06DF83E078DF802F76DF23
:1009D000812F74DF8D2F72DF8C2F70DFDF91CF912D
:1009E0001F910F913FCFCF92DF92EF92FF920F9323
:1009F0001F93CF93DF9300D000D01F92CDB7DEB707
:100A00008C017B01FE01319685E0DF011D928A9504
:100A1000E9F73B9A439ABFEF20E782E0B1502040CC
:100A20008040E1F700C000004398A7EEB3E01197C3
:100A3000F1F700C00000439A3B98BAE6BA95F1F787
:100A400000C0339B02C08FEF84C025ED2A95F1F7DB
:100A50000000339BF8CF85ED8A95F1F70000BE01C9
:100A60006A5F7F4FA1E0B0E027E030E080E049EC32
:100A700050E0339904C041505109D9F7E4CF90E5D3
:100A80009A95F1F7339B07C0AD01022E01C0440FC8
:100A90000A94EAF7842B49EC50E0339B04C04150A0
:100AA0005109D9F7D0CF2150310908F781936E173A
:100AB0007F07D1F63B9A439AAFEFB0E7E2E0A1504F
:100AC000B040E040E1F700C0000069817A81D62E95
:100AD000C72E6B817C8176276727762799818A814B
:100AE000980F8B81980F2C81920F8D819813ABCF2B
:100AF00077FF12C07F7780E090E048D320E030E0BD
:100B000040E251E4AAD2DC01CB01B058F801808365
:100B10009183A283B3830EC080E090E037D320E0BE
:100B200030E040E251E499D2D8016D937D938D93EA
:100B30009C931397B60180E090E028D320E030E04A
:100B400040E251E48AD2F701608371838283938308
:100B500080E00F900F900F900F900F90DF91CF914A
:100B60001F910F91FF90EF90DF90CF900895CF935A
:100B7000DF9300D000D0CDB7DEB719821A821B8276
:100B80001C82BE016F5F7F4F2EDF0F900F900F9082
:100B90000F90DF91CF910895CF93DF9300D000D0D5
:100BA000CDB7DEB719821A821B821C82BC01CE012E
:100BB000019619DF0F900F900F900F90DF91CF915A
:100BC000089511CF62DD47DD80E038DD80E091E0FF
:100BD000C2DD60E082E043DD80E191E0BCDD2FEF2B
:100BE0008DE399E4215080409040E1F700C000007F
:100BF0000895EF92FF920F931F93CF93DF93CDB79A
:100C0000DEB7C456D1090FB6F894DEBF0FBECDBF14
:100C10008130910509F44CC074F4892B09F0D1C0DE
:100C200080E00CDD80E291E096DD60E082E017DD9F
:100C300086E391E0C5C08230910509F481C0039735
:100C400009F0BFC080E0FADC6091F0017091F10121
:100C50008091F2019091F3019E012F5F3F4F790146
:100C6000890122E042E027D480E891E074DDC701E9
:100C700072DD87E891E06FDD60E082E0F0DC80917A
:100C8000E5018F938091E4018F9388EC91E09F932D
:100C90008F93FF92EF922ED4C7015DDD8AED91E034
:100CA0005ADD0F900F900F900F900F900F9089C00A
:100CB00080E034DE8091FD018F938091FC018F9361
:100CC0008091FF018F938091FE018F9380910102AB
:100CD0008F93809100028F938CE491E09F938F9388
:100CE0008E010F5F1F4F1F930F9304D480E0A6DC8B
:100CF000C80131DD83E02BDE809103028F93809168
:100D000002028F938091FB018F938091FA018F9360
:100D1000809107028F93809106028F9386E691E07F
:100D20009F938F931F930F93E5D360E082E097DC4E
:100D3000C80111DD0FB6F894DEBF0FBECDBF41C0B4
:100D40006CED71E080EE91E04EDE8F3F71F180E05E
:100D500075DC6091E0017091E1018091E201909178
:100D6000E3018E010F5F1F4F22E042E0A4D380E831
:100D700091E0F1DCC801EFDC87E891E0ECDC60E0B9
:100D800082E06DDC6091DC017091DD018091DE011B
:100D90009091DF0122E042E08ED383E991E0DBDC39
:100DA000C801D9DC8BE991E00BC055DC86E046DC5C
:100DB00086EA91E0D0DC62E082E051DC87EB91E0F2
:100DC000CADCCC59DF4F0FB6F894DEBF0FBECDBFE3
:100DD000DF91CF911F910F91FF90EF9008950F93A6
:100DE0001F93CF93DF93F89480E090E0D0DC909352
:100DF000E7018093E60178940091E6011091E70104
:100E0000C80101978F3F934000F5C091E801D09150
:100E1000E901BE010D2E000C880B990BB9D120E021
:100E200030E040EF51E415D1882389F08091EE0144
:100E30009091EF01080F191F1093EF010093EE013D
:100E40002196D093E901C093E80180E001C081E0E0
:100E5000DF91CF911F910F9108956091EE017091F4
:100E6000EF01072E000C880B990B92D120E030E0A7
:100E700040EF51E4F2D09B01AC016093EA01709322
:100E8000EB018093EC019093ED0160EF78E18CE150
:100E90009BE4E3D020E030E44CE156E475D045D14A
:100EA0006093F6017093F7018093F8019093F90134
:100EB0006FD120E030E44CE156E4CFD01ED224EBD9
:100EC00032EA41E959E359D22FE03FEC4BE55BE3CD
:100ED0005CD09B01AC0160E070E080E89FE3BDD096
:100EE000F89423E333E948E853E44ED06093F001EB
:100EF0007093F1018093F2019093F3017894109232
:100F0000EF011092EE011092E9011092E8010895AC
:100F1000F89481E090E03BDC9093E5018093E4015C
:100F2000789408958DE08DB988E887B988E18AB909
:100F30002A9A589A2E9A46DE21DC46DC7894C0E044
:100F4000D0E01A9913C02FEF81EE94E02150804039
:100F50009040E1F700C000001A9BFECF2196C430FC
:100F6000D10514F0C0E0D0E0CE0143DE38DF8111BE
:100F700074DFCEDF2FEF81EE94E02150804090406F
:100F8000E1F700C00000DDCF5058BB27AA270ED0E4
:100F900075C166D130F06BD120F031F49F3F11F470
:100FA0001EF45BC10EF4E095E7FB51C1E92F77D148
:100FB00080F3BA17620773078407950718F071F476
:100FC0009EF58FC10EF4E0950B2EBA2FA02D0B01CC
:100FD000B90190010C01CA01A0011124FF27591B7E
:100FE00099F0593F50F4503E68F11A16F040A22F84
:100FF000232F342F4427585FF3CF469537952795F5
:10100000A795F0405395C9F77EF41F16BA0B620BF3
:10101000730B840BBAF09150A1F0FF0FBB1F661F3A
:10102000771F881FC2F70EC0BA0F621F731F841F7D
:1010300048F4879577956795B795F7959E3F08F0A3
:10104000B3CF9395880F08F09927EE0F9795879562
:101050000895D9D008F481E008950CD00FC107D1CC
:1010600040F0FED030F021F45F3F19F0F0C0511194
:1010700039C1F3C014D198F39923C9F35523B1F3BF
:10108000951B550BBB27AA2762177307840738F0F7
:101090009F5F5F4F220F331F441FAA1FA9F333D056
:1010A0000E2E3AF0E0E830D091505040E695001C0A
:1010B000CAF729D0FE2F27D0660F771F881FBB1FC6
:1010C000261737074807AB07B0E809F0BB0B802DA0
:1010D000BF01FF2793585F4F2AF09E3F510568F0EC
:1010E000B6C000C15F3FECF3983EDCF38695779580
:1010F0006795B795F7959F5FC9F7880F911D9695EE
:10110000879597F90895E1E0660F771F881FBB1F49
:10111000621773078407BA0720F0621B730B840BF6
:10112000BA0BEE1F88F7E095089504D06894B111CA
:10113000D9C00895BCD088F09F5790F0B92F992757
:10114000B751A0F0D1F0660F771F881F991F1AF0D2
:10115000BA95C9F712C0B13081F0C3D0B1E008959B
:10116000C0C0672F782F8827B85F39F0B93FCCF31C
:10117000869577956795B395D9F73EF490958095C8
:10118000709561957F4F8F4F9F4F0895E89409C0E8
:1011900097FB3EF490958095709561957F4F8F4FAA
:1011A0009F4F9923A9F0F92F96E9BB279395F695C0
:1011B000879577956795B795F111F8CFFAF4BB0F3E
:1011C00011F460FF1BC06F5F7F4F8F4F9F4F16C0A2
:1011D000882311F096E911C0772321F09EE8872F2C
:1011E000762F05C0662371F096E8862F70E060E0E8
:1011F0002AF09A95660F771F881FDAF7880F969561
:10120000879597F90895990F0008550FAA0BE0E804
:10121000FEEF16161706E807F907C0F012161306B8
:10122000E407F50798F0621B730B840B950B39F4F8
:101230000A2661F0232B242B252B21F408950A265E
:1012400009F4A140A6958FEF811D811D089597F99E
:101250009F6780E870E060E008959FEF80EC08955C
:1012600000240A9416161706180609060895002485
:101270000A9412161306140605060895092E0394FF
:10128000000C11F4882352F0BB0F40F4BF2B11F473
:1012900060FF04C06F5F7F4F8F4F9F4F089557FDD2
:1012A0009058440F551F59F05F3F71F04795880FD4
:1012B00097FB991F61F09F3F79F08795089512166B
:1012C00013061406551FF2CF4695F1DF08C0161617
:1012D00017061806991FF1CF8695710561050894C8
:1012E0000895E894BB2766277727CB0197F90895DF
:1012F0000EF0AEC0B2CF6894AACFD9DFC8F399235D
:10130000D1F3C6F3DF93CF931F930F93FF92C92FAF
:10131000DD2788232AF02197660F771F881FDAF7C9
:1013200020E030E040E85FEB9FE3883920F0803E2A
:1013300030F021968F7729DEE8E2F0E003C025DE69
:10134000E5E5F0E093D08B01BE01EC01FB2E6F5779
:1013500071097595771F880B990B1ADF28E132E721
:1013600041E35FE315D0AF2D9801AE01FF900F91DF
:101370001F91CF91DF911ADE81CF0AD07FCF70DF2E
:1013800028F075DF18F0952309F061CF66CFAACF5A
:1013900086DFA8F39923D9F35523C9F3950F50E0BD
:1013A000551FAA27EE27FF27BB270024089467951F
:1013B00020F4E20FF31FB41F0A1E220F331F441F35
:1013C000AA1F6695A9F7779530F4F30FB41F0A1E8C
:1013D000121E08F46395330F441FAA1F221F76952F
:1013E00099F7879520F4B40F0A1E121E631F440F4D
:1013F000AA1F221F331F8695A9F7862F712D602DF6
:1014000011249F5750408AF0E1F088234AF0EE0FF4
:10141000FF1FBB1F661F771F881F91505040A9F701
:101420009E3F510570F013CF5DCF5F3FECF3983EC8
:10143000DCF3869577956795B795F795E7959F5F68
:10144000C1F7FE2B880F911D9695879597F9089502
:101450009F3F31F0915020F4879577956795B79528
:10146000880F911D9695879597F90895DF93CF93EF
:101470001F930F93FF92EF92DF927B018C01689490
:1014800005C0DA2EEF0184DFFE01E894A5912591D5
:10149000359145915591AEF3EF0188DDFE0197013D
:1014A000A801DA9479F7DF90EF90FF900F911F91E8
:1014B000CF91DF910895EF920F931F93CF93DF9316
:1014C000E80147FD02C034E001C034E1042E000C05
:1014D000550B57FF03C0519541955109E32E022F3B
:1014E000242FAE01F9D1CE01DF91CF911F910F9141
:1014F000EF900895AEE0B0E0EFE7FAE0E5C40D89C3
:101500001E8986E08C831A8309838FEF9FE79E8371
:101510008D83AE01475E5F4F6F89788DCE01019656
:1015200008D0EF81F885E00FF11F10822E96E4E0DD
:10153000E7C4ABE0B0E0EEE9FAE0B8C46C017B01CF
:101540008A01FC0117821682838181FFC0C1CE010E
:1015500001963C01F6019381F70193FD859193FF7C
:1015600081917F01882309F4AEC1853239F493FD5E
:10157000859193FF81917F01853221F4B60190E03E
:10158000F0D3E8CF912C212C312CFFE1F315E0F0C2
:101590008B3279F038F4803279F08332A9F4232D3C
:1015A000206110C08D3259F0803371F4232D2160F9
:1015B00009C0832D8260382EE32DE46022C0F32D14
:1015C000F86025C0322E27C037FC2DC020ED280F33
:1015D0002A3088F436FE06C0892D6AE05ED4922E49
:1015E000980E19C0822D6AE058D4222E280E832D21
:1015F0008062382E10C08E3231F436FC64C1E32D87
:10160000E0643E2E08C08C3621F4F32DF0683F2EA6
:1016100002C0883641F4F70193FD859193FF8191D3
:101620007F018111B2CF982F9F7D9554933028F47C
:101630000C5F1F4F2FE329830DC0833631F08337B2
:1016400071F0833509F055C020C0F801808189838D
:101650000E5F1F4F88248394912C530112C02801E0
:10166000F2E04F0E511CF801A080B18036FE03C09D
:10167000692D70E002C06FEF7FEFC50167D34C01A9
:101680008201F32DFF773F2E15C0280122E0420E84
:10169000511CF801A080B18036FE03C0692D70E0B6
:1016A00002C06FEF7FEFC50146D34C01F32DF06808
:1016B0003F2E820133FC19C0822D90E088169906D6
:1016C000A0F4B60180E290E04CD32A94F5CFF50166
:1016D00037FC859137FE81915F01B60190E041D3DF
:1016E00021102A9421E0821A91088114910479F73B
:1016F000E1C0843611F0893639F5F80137FE07C0AC
:1017000060817181828193810C5F1F4F08C060816D
:101710007181072E000C880B990B0E5F1F4FF32D64
:10172000FF763F2E97FF09C0909580957095619543
:101730007F4F8F4F9F4FF0683F2E2AE030E0A3018C
:101740004CD3882E861844C0853731F4232D2F7E44
:10175000B22E2AE030E025C0932D997FB92E8F3626
:10176000C1F018F4883579F0AEC0803719F08837A9
:1017700021F0A9C0E92FE061BE2EB4FE0DC0FB2D03
:10178000F460BF2E09C034FE0AC0292F2660B22E95
:1017900006C028E030E005C020E130E002C020E1D2
:1017A00032E0F801B7FE07C06081718182819381C8
:1017B0000C5F1F4F06C06081718180E090E00E5F7A
:1017C0001F4FA3010AD3882E8618FB2DFF773F2ECB
:1017D00036FE0DC0232D2E7FA22E891458F434FE20
:1017E0000BC032FC09C0832D8E7EA82E05C0B82CFC
:1017F000A32C03C0B82C01C0B92CA4FE0FC0FE015D
:10180000E80DF11D8081803321F49A2D997EA92E57
:1018100009C0A2FE06C0B394B39404C08A2D867892
:1018200009F0B394A3FC10C0A0FE06C0B21480F46B
:10183000280C922C9B180DC0B21458F4B60180E20B
:1018400090E08FD2B394F8CFB21418F42B1802C0E2
:10185000982C212CA4FE0FC0B60180E390E081D229
:10186000A2FE16C0A1FC03C088E790E002C088E594
:1018700090E0B6010CC08A2D867851F0A1FE02C01E
:101880008BE201C080E2A7FC8DE2B60190E069D254
:10189000891430F4B60180E390E063D29A94F8CFD3
:1018A0008A94F301E80DF11D8081B60190E059D2D0
:1018B0008110F6CF222009F44DCEB60180E290E0EF
:1018C00050D22A94F7CFF6018681978102C08FEF1C
:1018D0009FEF2B96E2E106C3A9E0B0E0E1E7FCE070
:1018E000EBC26A01122FB02E2BE3201720F0FF2449
:1018F000F394F00E02C02CE3F22E0F2D27E0AE0180
:101900004F5F5F4F40D1BC014981842F8970813086
:1019100031F0E1FC06C0E0FE06C090E205C09DE2A9
:1019200003C09BE201C090E05E2D507143FF3CC0BC
:10193000911102C083E001C084E0811718F4212FC7
:10194000281B01C020E051110BC0F601822F30E2AC
:10195000882319F031938150FBCFC20ED11C20E0B7
:10196000992329F0D6019C93F60131966F01C601A7
:101970000396E2FE0AC03EE4D6013C9341E4119690
:101980004C93119712963C9306C03EE6F6013083C5
:1019900041E641833283FC01322F40E2332309F4D4
:1019A00042C041933150FACF42FF44C0911102C06E
:1019B00083E001C084E0811718F4212F281B01C0A7
:1019C00020E051110BC0F601822F30E2882319F07C
:1019D00031938150FBCFC20ED11C20E0992329F016
:1019E000D6019C93F60131966F01C6010396E2FE83
:1019F0000BC039E4D6013C933EE411963C93119719
:101A000036E412963C9307C039E6F60130833EE691
:101A1000318336E63283FC01322F40E2332319F062
:101A200041933150FBCFFC01E20FF11D10828EEF8C
:101A30009FEFA6C021E030E0911102C020E030E02D
:101A4000161617061CF4FB01319602C0E1E0F0E027
:101A50002E0F3F1FBB2021F0EB2DF0E0319602C08E
:101A6000E0E0F0E02E0F3F1FE12FF0E02E173F07E0
:101A70001CF4121B212F01C020E08E2D887159F417
:101A8000F601822F30E2882319F031938150FBCF89
:101A9000C20ED11C20E0992329F0D6019C93F601B7
:101AA00031966F0151110BC0F601822F90E388230C
:101AB00019F091938150FBCFC20ED11C20E00F2D65
:101AC000060F9A81342F307144FF03C0913309F41B
:101AD0000150101624F4093018F008E001C001E0AC
:101AE000AB0177FF02C040E050E0FB01E41BF50BC7
:101AF000A1E0B0E0AC0FBD1FEA0FFB1F8EE2A82EE5
:101B00004B01801A91080B2D10E0119501951109D8
:101B10004F3FBFEF5B0721F4D601AC9211966D01E8
:101B2000641775072CF08416950614F4818101C0A2
:101B300080E3415051093196D60111967D0140173D
:101B4000510724F0D6018C936701E2CF6417750723
:101B500039F4963320F4953319F4311101C081E33F
:101B6000F6018083F701822F90E2882319F0919388
:101B70008150FBCFF701E20FF11D108280E090E071
:101B80002996ECE0B5C1283008F027E03327DA01C8
:101B9000990F311D87FD916000966105710539F43B
:101BA00032602E5F3D9330E32A95E1F708959F3F21
:101BB00030F080387105610509F03C5F3C5F3D9372
:101BC000913008F08068911DDF93CF931F930F939E
:101BD000FF92EF92192F987F9695E92F96959695FB
:101BE000E90FFF27E452FF4F99273327EE24FF2404
:101BF000A701E70105900894079428F4360FE71E23
:101C0000F81E491F511D660F771F881F991F0694E4
:101C1000A1F70590079428F4E70EF81E491F561FF8
:101C2000C11D770F881F991F661F0694A1F70590A5
:101C3000079428F4F80E491F561FC71FD11D880F9F
:101C4000991F661F771F0694A1F70590079420F44B
:101C5000490F561FC71FD81F990F661F771F881F70
:101C60000694A9F784911095177041F0D695C79501
:101C700057954795F794E7941A95C1F7E2E8F0E095
:101C800068941590159135916591959105907FE235
:101C90007395E118F10A430B560BC90BD009C0F735
:101CA000E10CF11E431F561FC91FD01D7EF4703377
:101CB00011F48A95E6CFE894015030F0080F0AF449
:101CC0000027021708F4202F2395022F7A3328F0DB
:101CD00079E37D932A95E9F710C07D932A9589F6DB
:101CE000069497956795379517951794E118F10A1B
:101CF000430B560BC90BD00998F023957E91739531
:101D00007A3308F070E37C932013B8F77E9170610A
:101D10007D9330F0839571E37D9370E32A95E1F72D
:101D20001124EF90FF900F911F91CF91DF91992790
:101D300087FD90950895FC01059061507040011059
:101D4000D8F7809590958E0F9F1F0895FC016150E4
:101D5000704001900110D8F7809590958E0F9F1FCD
:101D600008950F931F93CF93DF93FB01238121FDF0
:101D700003C08FEF9FEF2CC022FF16C04681578112
:101D8000248135814217530744F4A081B1819D011C
:101D90002F5F3F4F318320838C93268137812F5FC4
:101DA0003F4F3783268314C08B01EC01FB01008475
:101DB000F185E02D0995892BE1F6D80116968D91D4
:101DC0009C911797019617969C938E931697CE0128
:101DD000DF91CF911F910F910895FA01AA27283022
:101DE00061F1203191F1E8946F936E7F6E5F7F4FC8
:101DF0008F4F9F4FAF4FB1E040D0B4E03ED0670F60
:101E0000781F891F9A1FA11D680F791F8A1F911DB6
:101E1000A11D6A0F711D811D911DA11D22D009F404
:101E200068943F91062E000C3019000C000C3019FC
:101E3000305D3193CEF6CF010895462F4770405D57
:101E40004193B3E00FD0C9F7F6CF462F4F70405DF6
:101E50004A3318F0495D31FD4052419302D0A9F751
:101E6000EACFB4E0A6959795879577956795BA954B
:101E7000C9F700976105710508959B01AC010A2E11
:101E800006945795479537952795BA95C9F7620FE8
:101E9000731F841F951FA01D0895002480FD060E4A
:101EA000660F11F08695D1F7802D08952F923F92FD
:101EB0004F925F926F927F928F929F92AF92BF925A
:101EC000CF92DF92EF92FF920F931F93CF93DF9306
:101ED000CDB7DEB7CA1BDB0B0FB6F894DEBF0FBE63
:101EE000CDBF09942A88398848885F846E847D84B0
:101EF0008C849B84AA84B984C884DF80EE80FD80B2
:101F00000C811B81AA81B981CE0FD11D0FB6F89427
:0E1F1000DEBF0FBECDBFED010895F894FFCFE8
:101F1E00456E672E20436F6D702E205546534D0033
:101F2E00202048656C6C6F20576F726C6420200007
:101F3E002020456E67656E68617269612064652058
:101F4E0020202020200020436F6D70757461636126
:101F5E006F205546534D202020202000484F5241DF
:101F6E003A20253032783A253032783A2530327898
:101F7E00202020202000444154413A202530327840
:101F8E002F253032782F2530327820202020200047
:101F9E0054656D702E3A00204320202020202020F2
:101FAE0020200048756D69642E3A002520202020DF
:101FBE002020202020004572726F722020202020C9
:101FCE0020202020202000444854204E6F7420668C
:101FDE006F756E64202020004C756D696E2E3A2050
:0C1FEE0025752020202020202000250048
:00000001FF
