:1000000013C025C024C023C022C021C020C01FC0EF
:100010001EC01DC01CC01BC01AC019C018C017C00C
:1000200016C015C014C013C011241FBECFEFD2E0FC
:10003000DEBFCDBF11E0A0E0B1E0E4E9F6E002C030
:1000400005900D92AC34B107D9F7EED221C3D8CFC9
:10005000672B09F08BC0009711F4709808958130D8
:10006000910511F4719808958230910511F47298F8
:1000700008958330910511F4739808958A3091059D
:1000800011F4289808958B30910511F4299808955A
:100090008C30910511F42A9808958D30910511F452
:1000A0002B9808958E30910511F42C9808958F3077
:1000B000910511F42D9808958031910511F42E9831
:1000C00008958131910511F42F9808958431910597
:1000D00011F4409808958531910511F441980895DF
:1000E0008631910511F4429808958731910511F4F4
:1000F000439808958831910511F444980895893101
:10010000910511F4459808958A31910511F44698A6
:1001100008958B31910511F4479808958E3191051A
:1001200011F4589808958F31910511F45998089554
:100130008032910511F45A9808958132910511F495
:100140005B9808958232910511F45C98089583328A
:10015000910511F45D9808958432910511F45E982B
:100160000895859709F08BC05F980895009711F462
:10017000709A08958130910511F4719A0895823032
:10018000910511F4729A08958330910511F4739AD0
:1001900008958A30910511F4289A08958B309105BD
:1001A00011F4299A08958C30910511F42A9A089532
:1001B0008D30910511F42B9A08958E30910511F42C
:1001C0002C9A08958F30910511F42D9A089580315D
:1001D000910511F42E9A08958131910511F42F9A09
:1001E00008958431910511F4409A0895853191055F
:1001F00011F4419A08958631910511F4429A0895B7
:100200008731910511F4439A08958831910511F4CD
:10021000449A08958931910511F4459A08958A31D7
:10022000910511F4469A08958B31910511F4479A7E
:1002300008958E31910511F4589A08958F319105E2
:1002400011F4599A08958032910511F45A9A08953B
:100250008132910511F45B9A08958232910511F46F
:100260005C9A08958332910511F45D9A0895843261
:10027000910511F45E9A0895859709F45F9A08959F
:10028000CF93C82F80FF03C061E070E002C060E040
:1002900070E080E090E0DCDEC1FF03C061E070E070
:1002A00002C060E070E081E090E0D2DEC2FF03C0F7
:1002B00061E070E002C060E070E082E090E0C8DEE3
:1002C000C3FF03C061E070E002C060E070E083E063
:1002D00090E0BEDEC4FF03C061E070E002C060E0F9
:1002E00070E081E290E0B4DEC5FF03C061E070E041
:1002F00002C060E070E082E290E0AADEC6FF03C0C8
:1003000061E070E002C060E070E082E090E0A0DEBA
:10031000C7FF03C061E070E002C060E070E083E00E
:1003200090E0CF9195CECF93C82F60E070E08BE145
:1003300090E08EDE8C2FA4DF61E070E080E090E042
:1003400087DE8FEC97E00197F1F700C0000060E0D6
:1003500070E080E090E07CDE8FEC97E00197F1F7B1
:1003600000C00000CF91089581E0DDCF813011F40D
:1003700080E803C0823019F480EC860FD4CF089552
:1003800060E070E08BE190E063DE60E070E080E0D0
:1003900090E05EDE8FE39CE90197F1F700C000007A
:1003A00080E3C1DF8FE097E20197F1F700C0000022
:1003B00080E3B9DF8FEC97E00197F1F700C0000010
:1003C00080E3B1DF8FE19EE40197F1F700C0000008
:1003D00088E3A9DF8CE0A7DF81E0A5DF86E0A3CF7B
:1003E000CF93C82F61E070E08BE190E031DE8C2F7D
:1003F00047DF61E070E080E090E02ADE8FEC97E07C
:100400000197F1F700C0000060E070E080E090E04C
:100410001FDE8FEC97E00197F1F700C00000CF914D
:100420000895CF93DF93EC018991882311F0D8DFF1
:10043000FBCFDF91CF9108958CE175CF88E173CF29
:10044000CF93C82F80FF03C061E070E002C060E07E
:1004500070E081E290E0FCDDC1FF03C061E070E08C
:1004600002C060E070E082E290E0F2DDC2FF03C013
:1004700061E070E002C060E070E082E090E0E8DD02
:10048000C3FF03C061E070E002C060E070E083E0A1
:1004900090E0CF91DDCDCF93C82F60E070E08BE18D
:1004A00090E0D6DD8C2FCCDF61E070E080E090E062
:1004B000CFDD8FEC97E00197F1F700C0000060E01E
:1004C00070E080E090E0C4DD8FEC97E00197F1F7F9
:1004D00000C00000CF91089580E0DDDF81E0DBCF38
:1004E000CF93C62F813011F480E803C0823059F4D5
:1004F00080EC8C0F8595859585958595CCDF8C2F27
:100500008F70CF91C8CFCF91089580E099DF8FE3AE
:100510009CE90197F1F700C0000083E0BCDF8FE0A9
:1005200097E20197F1F700C0000083E0B4DF8FEE9F
:1005300095E50197F1F700C0000083E0ACDF82E0B1
:10054000AADF82E0A8DF88E0A6DF80E0A4DF8CE0FD
:10055000A2DF80E0A0DF86E09ECFCF93C82F61E0CE
:1005600070E08BE190E074DD8C2F85958595859505
:10057000859566DF61E070E080E090E069DD8FECFA
:1005800097E00197F1F700C0000060E070E080E0C4
:1005900090E05EDD8FEC97E00197F1F700C000007E
:1005A0008C2F8F704DDF61E070E080E090E050DDD7
:1005B0008FEC97E00197F1F700C0000060E070E079
:1005C00080E090E045DD8FEC97E00197F1F700C007
:1005D0000000CF910895CF93DF93EC018991882398
:1005E00011F0BBDFFBCFDF91CF91089581E053DFA6
:1005F0008CE051CF81E04FDF88E04DCFCF93C82F03
:100600006BDF88EF48DF80E046DFCC2319F080E025
:1006100091E002C081E191E0DEDF64E082E060DF32
:1006200082E291E0CF91D7CF8DE08DB980E887B994
:1006300088E18AB92A9A589A2E9867DF4DDF88EFA9
:100640002ADF80E028DF8BE291E0C5DF60E082E016
:1006500047DF8BE391E0BFDF2FEF8DE399E421507B
:1006600080409040E1F700C00000C0E0D1E01A995E
:10067000FECF2FEF81EE94E0215080409040E1F7D3
:1006800000C000001A9BFECF8C2FB8DFCD27EFCF24
:04069000F894FFCF0C
:100694002020476F6F64204D6F726E696E67202053
:1006A4000020476F6F642041667465726E6F6F6ED1
:1006B4002000466F6C6B7321212100456E672E204C
:1006C400436F6D702E205546534D00202048656CB5
:0C06D4006C6F20576F726C6420200000D7
:00000001FF
