:1000000013C025C024C023C022C021C020C01FC0EF
:100010001EC01DC01CC01BC01AC019C018C017C00C
:1000200016C015C014C013C011241FBECFEFD2E0FC
:10003000DEBFCDBF11E0A0E0B1E0EEE4FEE002C023
:1000400005900D92AE34B107D9F7A9D3FEC6D8CF2B
:10005000672B09F08BC0009711F4709808958130D8
:10006000910511F4719808958230910511F47298F8
:1000700008958330910511F4739808958A3091059D
:1000800011F4289808958B30910511F4299808955A
:100090008C30910511F42A9808958D30910511F452
:1000A0002B9808958E30910511F42C9808958F3077
:1000B000910511F42D9808958031910511F42E9831
:1000C00008958131910511F42F9808958431910597
:1000D00011F4409808958531910511F441980895DF
:1000E0008631910511F4429808958731910511F4F4
:1000F000439808958831910511F444980895893101
:10010000910511F4459808958A31910511F44698A6
:1001100008958B31910511F4479808958E3191051A
:1001200011F4589808958F31910511F45998089554
:100130008032910511F45A9808958132910511F495
:100140005B9808958232910511F45C98089583328A
:10015000910511F45D9808958432910511F45E982B
:100160000895859709F08BC05F980895009711F462
:10017000709A08958130910511F4719A0895823032
:10018000910511F4729A08958330910511F4739AD0
:1001900008958A30910511F4289A08958B309105BD
:1001A00011F4299A08958C30910511F42A9A089532
:1001B0008D30910511F42B9A08958E30910511F42C
:1001C0002C9A08958F30910511F42D9A089580315D
:1001D000910511F42E9A08958131910511F42F9A09
:1001E00008958431910511F4409A0895853191055F
:1001F00011F4419A08958631910511F4429A0895B7
:100200008731910511F4439A08958831910511F4CD
:10021000449A08958931910511F4459A08958A31D7
:10022000910511F4469A08958B31910511F4479A7E
:1002300008958E31910511F4589A08958F319105E2
:1002400011F4599A08958032910511F45A9A08953B
:100250008132910511F45B9A08958232910511F46F
:100260005C9A08958332910511F45D9A0895843261
:10027000910511F45E9A0895859709F45F9A08959F
:10028000CF93C82F80FF03C061E070E002C060E040
:1002900070E080E090E0DCDEC1FF03C061E070E070
:1002A00002C060E070E081E090E0D2DEC2FF03C0F7
:1002B00061E070E002C060E070E082E090E0C8DEE3
:1002C000C3FF03C061E070E002C060E070E083E063
:1002D00090E0BEDEC4FF03C061E070E002C060E0F9
:1002E00070E081E290E0B4DEC5FF03C061E070E041
:1002F00002C060E070E082E290E0AADEC6FF03C0C8
:1003000061E070E002C060E070E082E090E0A0DEBA
:10031000C7FF03C061E070E002C060E070E083E00E
:1003200090E0CF9195CECF93C82F60E070E08BE145
:1003300090E08EDE8C2FA4DF61E070E080E090E042
:1003400087DE8FEC97E00197F1F700C0000060E0D6
:1003500070E080E090E07CDE8FEC97E00197F1F7B1
:1003600000C00000CF91089581E0DDCF813011F40D
:1003700080E803C0823019F480EC860FD4CF089552
:1003800060E070E08BE190E063DE60E070E080E0D0
:1003900090E05EDE8FE39CE90197F1F700C000007A
:1003A00080E3C1DF8FE097E20197F1F700C0000022
:1003B00080E3B9DF8FEC97E00197F1F700C0000010
:1003C00080E3B1DF8FE19EE40197F1F700C0000008
:1003D00088E3A9DF8CE0A7DF81E0A5DF86E0A3CF7B
:1003E000CF93C82F61E070E08BE190E031DE8C2F7D
:1003F00047DF61E070E080E090E02ADE8FEC97E07C
:100400000197F1F700C0000060E070E080E090E04C
:100410001FDE8FEC97E00197F1F700C00000CF914D
:100420000895CF93DF93EC018991882311F0D8DFF1
:10043000FBCFDF91CF9108958CE175CF88E173CF29
:10044000CF93C82F80FF03C061E070E002C060E07E
:1004500070E081E290E0FCDDC1FF03C061E070E08C
:1004600002C060E070E082E290E0F2DDC2FF03C013
:1004700061E070E002C060E070E082E090E0E8DD02
:10048000C3FF03C061E070E002C060E070E083E0A1
:1004900090E0CF91DDCDCF93C82F60E070E08BE18D
:1004A00090E0D6DD8C2FCCDF61E070E080E090E062
:1004B000CFDD8FEC97E00197F1F700C0000060E01E
:1004C00070E080E090E0C4DD8FEC97E00197F1F7F9
:1004D00000C00000CF910895CF93C82F80E88C0F03
:1004E0008595859585958595D6DF8C2F8F70CF91D5
:1004F000D2CF80E0D0DF81E0CECFCF93813019F42E
:10050000862FCF91E9CF823061F4C62F80EC860F21
:100510008595859585958595BEDF8C2F8F70CF91BC
:10052000BACFCF91089580E08BDF8FE39CE90197EC
:10053000F1F700C0000083E0AEDF8FE097E20197A3
:10054000F1F700C0000083E0A6DF8FEE95E501978C
:10055000F1F700C0000083E09EDF82E09CDF82E0D4
:100560009ADF88E098DF80E096DF8CE094DF80E01F
:1005700092DF86E090CFCF93C82F61E070E08BE1EF
:1005800090E066DD8C2F859585958595859558DF5E
:1005900061E070E080E090E05BDD8FEC97E0019738
:1005A000F1F700C0000060E070E080E090E050DD16
:1005B0008FEC97E00197F1F700C000008C2F8F704F
:1005C0003FDF61E070E080E090E042DD8FEC97E09B
:1005D0000197F1F700C0000060E070E080E090E07B
:1005E00037DD8FEC97E00197F1F700C00000CF9165
:1005F0000895CF93DF93EC018991882311F0BBDF3D
:10060000FBCFDF91CF91089581E045DF8CE043CFB0
:1006100081E041DF88E03FCFCF92DF92EF92FF92FF
:100620000F931F93CF93DF9300D000D01F92CDB7CD
:10063000DEB76C01FE01319685E0DF011D928A95DF
:10064000E9F73B9A439ABFEF20E782E0B1502040A0
:100650008040E1F700C000004398AFE9BCE8119783
:10066000F1F700C00000439A3B98BAE6BA95F1F75B
:1006700000C0339B02C08FEF50C025ED2A95F1F7E3
:100680000000339BF8CF85ED8A95F1F700008E01CD
:100690000A5F1F4FEE24E394F12C27E030E090E056
:1006A00049EC50E0339904C041505109D9F7E3CFE8
:1006B000A0E5AA95F1F7339B07C0A701022E01C060
:1006C000440F0A94EAF7942B49EC50E0339B04C0A2
:1006D00041505109D9F7CFCF2150310908F79193F3
:1006E0000E171F07D1F63B9A439AEFEFF0E722E08F
:1006F000E150F0402040E1F700C0000089813B81DB
:100700009A81980F930F2C81920F2D819213B3CF62
:10071000D6013C93FB01808380E00F900F900F90F7
:100720000F900F90DF91CF911F910F91FF90EF905D
:10073000DF90CF900895CF93DF931F92CDB7DEB7B0
:100740001982BE016F5F7F4F67DF0F90DF91CF91FE
:100750000895CF93DF931F92CDB7DEB71982BC0106
:10076000CE01019659DF0F90DF91CF91089554CFBC
:10077000DADEBFDE80E0B0DE80E091E03ADF60E00C
:1007800082E0BBDE80E191E034DF2FEF8DE399E47E
:10079000215080409040E1F700C000000895CF93C1
:1007A000DF93CDB7DEB7C656D1090FB6F894DEBFDA
:1007B0000FBECDBF8DE08DB988E887B988E18AB9D1
:1007C0002A9A589A2E98D4DF7894A7961FAEA797A6
:1007D000A6961FAEA69780E2E82E81E0F82E8E0145
:1007E0000F5F1F4F9DE2C92E91E0D92EBE016B59BC
:1007F0007F4FCE018A599F4F0FDF8F3F61F1A79640
:100800008FADA797282F082E000C330B3F938F93A3
:10081000FF92EF921F930F9334D06BDE80E05CDE8B
:10082000C801E7DEA6968FADA697282F082E000CEC
:10083000330B3F938F93DF92CF921F930F9321D06F
:1008400060E082E05ADEC801D4DE0FB6F894DEBF65
:100850000FBECDBF0CC04DDE86E03EDE89E391E0E9
:10086000C8DE62E082E049DE8FE391E0C2DE9FEF06
:100870002EE984E2915020408040E1F700C0000062
:10088000B5CFAEE0B0E0E6E4F4E0B6C20D891E8973
:1008900086E08C831A8309838FEF9FE79E838D8385
:1008A000AE01475E5F4F6F89788DCE01019608D00B
:1008B000EF81F885E00FF11F10822E96E4E0B8C2B8
:1008C000ABE0B0E0E5E6F4E089C26C017B018A01AF
:1008D000FC0117821682838181FFC0C1CE0101967F
:1008E0003C01F6019381F70193FD859193FF81917E
:1008F0007F01882309F4AEC1853239F493FD8591D7
:1009000093FF81917F01853221F4B60190E0C1D13E
:10091000E8CF912C212C312CFFE1F315E0F08B3244
:1009200079F038F4803279F08332A9F4232D2061F4
:1009300010C08D3259F0803371F4232D216009C02D
:10094000832D8260382EE32DE46022C0F32DF86001
:1009500025C0322E27C037FC2DC020ED280F2A30AD
:1009600088F436FE06C0892D6AE02FD2922E980EAA
:1009700019C0822D6AE029D2222E280E832D806292
:10098000382E10C08E3231F436FC64C1E32DE064A1
:100990003E2E08C08C3621F4F32DF0683F2E02C0A5
:1009A000883641F4F70193FD859193FF81917F0192
:1009B0008111B2CF982F9F7D9554933028F40C5F0E
:1009C0001F4F2FE329830DC0833631F0833771F039
:1009D000833509F055C020C0F801808189830E5FFE
:1009E0001F4F88248394912C530112C02801F2E0F8
:1009F0004F0E511CF801A080B18036FE03C0692D56
:100A000070E002C06FEF7FEFC50138D14C01820169
:100A1000F32DFF773F2E15C0280122E0420E511C16
:100A2000F801A080B18036FE03C0692D70E002C0DD
:100A30006FEF7FEFC50117D14C01F32DF0683F2E0A
:100A4000820133FC19C0822D90E088169906A0F42B
:100A5000B60180E290E01DD12A94F5CFF50137FC74
:100A6000859137FE81915F01B60190E012D121108E
:100A70002A9421E0821A91088114910479F7E1C047
:100A8000843611F0893639F5F80137FE07C06081E8
:100A90007181828193810C5F1F4F08C060817181D9
:100AA000072E000C880B990B0E5F1F4FF32DFF765E
:100AB0003F2E97FF09C090958095709561957F4F67
:100AC0008F4F9F4FF0683F2E2AE030E0A3011DD1E9
:100AD000882E861844C0853731F4232D2F7EB22E00
:100AE0002AE030E025C0932D997FB92E8F36C1F0D2
:100AF00018F4883579F0AEC0803719F0883721F0C6
:100B0000A9C0E92FE061BE2EB4FE0DC0FB2DF4603C
:100B1000BF2E09C034FE0AC0292F2660B22E06C09F
:100B200028E030E005C020E130E002C020E132E002
:100B3000F801B7FE07C060817181828193810C5FEB
:100B40001F4F06C06081718180E090E00E5F1F4FF3
:100B5000A301DBD0882E8618FB2DFF773F2E36FEB3
:100B60000DC0232D2E7FA22E891458F434FE0BC005
:100B700032FC09C0832D8E7EA82E05C0B82CA32C74
:100B800003C0B82C01C0B92CA4FE0FC0FE01E80DB3
:100B9000F11D8081803321F49A2D997EA92E09C000
:100BA000A2FE06C0B394B39404C08A2D867809F0DF
:100BB000B394A3FC10C0A0FE06C0B21480F4280CAD
:100BC000922C9B180DC0B21458F4B60180E290E04C
:100BD00060D0B394F8CFB21418F42B1802C0982C3C
:100BE000212CA4FE0FC0B60180E390E052D0A2FEFB
:100BF00016C0A1FC03C088E790E002C088E590E041
:100C0000B6010CC08A2D867851F0A1FE02C08BE29D
:100C100001C080E2A7FC8DE2B60190E03AD08914D1
:100C200030F4B60180E390E034D09A94F8CF8A94FF
:100C3000F301E80DF11D8081B60190E02AD081100A
:100C4000F6CF222009F44DCEB60180E290E021D00B
:100C50002A94F7CFF6018681978102C08FEF9FEF2C
:100C60002B96E2E1D7C0FC01059061507040011065
:100C7000D8F7809590958E0F9F1F0895FC016150C5
:100C8000704001900110D8F7809590958E0F9F1FAE
:100C900008950F931F93CF93DF93FB01238121FDD1
:100CA00003C08FEF9FEF2CC022FF16C046815781F3
:100CB000248135814217530744F4A081B1819D01FD
:100CC0002F5F3F4F318320838C93268137812F5FA5
:100CD0003F4F3783268314C08B01EC01FB01008456
:100CE000F185E02D0995892BE1F6D80116968D91B5
:100CF0009C911797019617969C938E931697CE0109
:100D0000DF91CF911F910F910895FA01AA27283002
:100D100061F1203191F1E8946F936E7F6E5F7F4FA8
:100D20008F4F9F4FAF4FB1E040D0B4E03ED0670F40
:100D3000781F891F9A1FA11D680F791F8A1F911D97
:100D4000A11D6A0F711D811D911DA11D22D009F4E5
:100D500068943F91062E000C3019000C000C3019DD
:100D6000305D3193CEF6CF010895462F4770405D38
:100D70004193B3E00FD0C9F7F6CF462F4F70405DD7
:100D80004A3318F0495D31FD4052419302D0A9F732
:100D9000EACFB4E0A6959795879577956795BA952C
:100DA000C9F700976105710508959B01AC010A2EF2
:100DB00006945795479537952795BA95C9F7620FC9
:100DC000731F841F951FA01D0895002480FD060E2B
:100DD000660F11F08695D1F7802D08952F923F92DE
:100DE0004F925F926F927F928F929F92AF92BF923B
:100DF000CF92DF92EF92FF920F931F93CF93DF93E7
:100E0000CDB7DEB7CA1BDB0B0FB6F894DEBF0FBE43
:100E1000CDBF09942A88398848885F846E847D8490
:100E20008C849B84AA84B984C884DF80EE80FD8092
:100E30000C811B81AA81B981CE0FD11D0FB6F89408
:0E0E4000DEBF0FBECDBFED010895F894FFCFC9
:100E4E00456E672E20436F6D702E205546534D0014
:100E5E00202048656C6C6F20576F726C64202000E8
:100E6E0054656D702E3A257520C2B0430048756DDD
:100E7E0069642E3A25752525004572726F720044FD
:0E0E8E004854204E6F7420666F756E6400002D
:00000001FF
