:10000000BDC0D7C0D6C0D5C0D4C0D3C0D2C0D1C067
:10001000D0C0CFC0CEC0CDC0CCC0CBC0CAC0C9C07C
:10002000C8C0C7C0C6C0C5C008000000BE922449F1
:10003000123EABAAAA2ABECDCCCC4C3E000000801A
:10004000BEABAAAAAA3E00000000BF000000803F8D
:100050000000000000084178D3BB4387D1133D194D
:100060000E3CC3BD4282AD2B3E68EC8276BED98F7A
:10007000E1A93E4C80EFFFBE01C4FF7F3F000000BE
:10008000000000407A10F35A00A0724E18090010C8
:10009000A5D4E80000E87648170000E40B540200FD
:1000A00000CA9A3B000000E1F50500008096980028
:1000B000000040420F000000A08601000000102751
:1000C00000000000E80300000000640000000000E1
:1000D0000A00000000000100000000002C76D88813
:1000E000DC674F0823DFC1DFAE59E1B1B796E5E326
:1000F000E453C63AE651997696E8E6C28426EB893F
:100100008C9B62ED407C6FFCEFBC9C9F40F2BAA5DB
:100110006FA5F490055A2AF75C936B6CF9676DC173
:100120001BFCE0E40D47FEF520E6B500D0ED902E77
:100130000300943577050080841E080000204E0AD5
:10014000000000C80C333333330F986E1283114113
:10015000EF8D2114893BE65516CFFEE6DB18D184DE
:100160004B381BF77C1D901DA4BBE4242032847205
:100170005E228100C9F124ECA1E53D2711241FBEB8
:10018000CFEFD2E0DEBFCDBF11E0A0E0B1E0EEE204
:10019000F4E102C005900D92A033B107D9F721E038
:1001A000A0E3B1E001C01D92A434B207E1F701D48D
:1001B0003CC926CF672B09F08BC0009711F47098CB
:1001C00008958130910511F4719808958230910558
:1001D00011F4729808958330910511F4739808957D
:1001E0008A30910511F4289808958B30910511F407
:1001F000299808958C30910511F42A9808958D302E
:10020000910511F42B9808958E30910511F42C98D6
:1002100008958F30910511F42D980895803191053E
:1002200011F42E9808958131910511F42F980895B5
:100230008431910511F4409808958531910511F4A8
:10024000419808958631910511F4429808958731B7
:10025000910511F4439808958831910511F444985B
:1002600008958931910511F4459808958A319105D1
:1002700011F4469808958B31910511F4479808952B
:100280008E31910511F4589808958F31910511F42C
:10029000599808958032910511F45A980895813241
:1002A000910511F45B9808958232910511F45C98E0
:1002B00008958332910511F45D9808958432910573
:1002C00011F45E980895859709F08BC05F980895A2
:1002D000009711F4709A08958130910511F4719A84
:1002E00008958230910511F4729A08958330910532
:1002F00011F4739A08958A30910511F4289A08959B
:100300008B30910511F4299A08958C30910511F4E0
:100310002A9A08958D30910511F42B9A08958E3004
:10032000910511F42C9A08958F30910511F42D9AAE
:1003300008958031910511F42E9A08958131910527
:1003400011F42F9A08958431910511F4409A08957B
:100350008531910511F4419A08958631910511F482
:10036000429A08958731910511F4439A089588318E
:10037000910511F4449A08958931910511F4459A33
:1003800008958A31910511F4469A08958B319105AB
:1003900011F4479A08958E31910511F4589A0895F1
:1003A0008F31910511F4599A08958032910511F415
:1003B0005A9A08958132910511F45B9A0895823218
:1003C000910511F45C9A08958332910511F45D9AB8
:1003D00008958432910511F45E9A0895859709F481
:1003E0005F9A0895CF93C82F80FF03C061E070E04B
:1003F00002C060E070E080E090E0DCDEC1FF03C09E
:1004000061E070E002C060E070E081E090E0D2DE88
:10041000C2FF03C061E070E002C060E070E082E013
:1004200090E0C8DEC3FF03C061E070E002C060E09E
:1004300070E083E090E0BEDEC4FF03C061E070E0E6
:1004400002C060E070E081E290E0B4DEC5FF03C06E
:1004500061E070E002C060E070E082E290E0AADE5D
:10046000C6FF03C061E070E002C060E070E082E0BF
:1004700090E0A0DEC7FF03C061E070E002C060E072
:1004800070E083E090E0CF9195CECF93C82F60E0ED
:1004900070E08BE190E08EDE8C2FA4DF61E070E0F5
:1004A00080E090E087DE8FEC97E00197F1F700C0E5
:1004B000000060E070E080E090E07CDE8FEC97E090
:1004C0000197F1F700C00000CF91089581E0DDCFE2
:1004D000813011F480E803C0823019F480EC860F7B
:1004E000D4CF089560E070E08BE190E063DE60E0DF
:1004F00070E080E090E05EDE8FE39CE90197F1F729
:1005000000C0000080E3C1DF8FE097E20197F1F7C0
:1005100000C0000080E3B9DF8FEC97E00197F1F7AE
:1005200000C0000080E3B1DF8FE19EE40197F1F7A6
:1005300000C0000088E3A9DF8CE0A7DF81E0A5DF31
:1005400086E0A3CFCF93C82F61E070E08BE190E00D
:1005500031DE8C2F47DF61E070E080E090E02ADE42
:100560008FEC97E00197F1F700C0000060E070E0C9
:1005700080E090E01FDE8FEC97E00197F1F700C07C
:100580000000CF910895CF93DF93EC0189918823E8
:1005900011F0D8DFFBCFDF91CF9108958CE175CFBB
:1005A00088E173CFCF93C82F80FF03C061E070E074
:1005B00002C060E070E081E290E0FCDDC1FF03C0BA
:1005C00061E070E002C060E070E082E290E0F2DDA5
:1005D000C2FF03C061E070E002C060E070E082E052
:1005E00090E0E8DDC3FF03C061E070E002C060E0BE
:1005F00070E083E090E0CF91DDCDCF93C82F60E035
:1006000070E08BE190E0D6DD8C2FCCDF61E070E014
:1006100080E090E0CFDD8FEC97E00197F1F700C02C
:10062000000060E070E080E090E0C4DD8FEC97E0D7
:100630000197F1F700C00000CF91089580E0DDDF61
:1006400081E0DBCFCF93C62F813011F480E803C067
:10065000823059F480EC8C0F85958595859585952C
:10066000CCDF8C2F8F70CF91C8CFCF91089580E0D1
:1006700099DF8FE39CE90197F1F700C0000083E068
:10068000BCDF8FE097E20197F1F700C0000083E044
:10069000B4DF8FEE95E50197F1F700C0000083E02D
:1006A000ACDF82E0AADF82E0A8DF88E0A6DF80E09E
:1006B000A4DF8CE0A2DF80E0A0DF86E09ECFCF93B6
:1006C000C82F61E070E08BE190E074DD8C2F8595A0
:1006D00085958595859566DF61E070E080E090E026
:1006E00069DD8FEC97E00197F1F700C0000060E052
:1006F00070E080E090E05EDD8FEC97E00197F1F72D
:1007000000C000008C2F8F704DDF61E070E080E052
:1007100090E050DD8FEC97E00197F1F700C000000A
:1007200060E070E080E090E045DD8FEC97E00197BD
:10073000F1F700C00000CF910895CF93DF93EC0153
:100740008991882311F0BBDFFBCFDF91CF91089512
:1007500081E053DF8CE051CF81E04FDF88E04DCF67
:10076000EAE7F0E080818760808380818068808311
:100770000895877080937C0080917C0080648093D2
:100780007C0080917C008F7D80937C0080917A003A
:10079000806480937A0080917A0084FFFCCF8091FE
:1007A00078002091790090E0922B089560DF46DF79
:1007B00088EF23DF80E021DF80E091E0BEDF60E0B2
:1007C00082E040DF80E191E0B8DF2FEF8DE399E434
:1007D000215080409040E1F700C0000008950F9341
:1007E0001F93CF93DF93CDB7DEB7C456D1090FB6B1
:1007F000F894DEBF0FBECDBF21DF88EFFEDE80E0C4
:10080000FCDE80E291E099DF60913A0170913B015A
:1008100080913C0190913D018E010F5F1F4F22E0BE
:1008200042E07ED3C80189DF87E291E086DF60E0A5
:1008300082E008DF8AE291E080DF6091340170910C
:100840003501809136019091370122E042E068D372
:10085000C80173DF10923F0110923E01CC59DF4F67
:100860000FB6F894DEBF0FBECDBFDF91CF911F91C1
:100870000F9108950F931F93CF93DF93F89480E027
:1008800090E077DF9093310180933001789400916C
:10089000300110913101C80101978F3F934000F55D
:1008A000C0913201D0913301BE010D2E000C880B96
:1008B000990BA3D120E030E040EF51E4FFD0882332
:1008C00089F08091380190913901080F191F109318
:1008D0003901009338012196D0933301C09332013E
:1008E00080E001C081E0DF91CF911F910F910895C9
:1008F0006091380170913901072E000C880B990B1B
:100900007CD120E030E040EF51E4DCD09B01AC0131
:1009100060933401709335018093360190933701D1
:1009200060EF78E18CE19BE4CDD020E030E44CE155
:1009300056E45FD02FD160934001709341018093C2
:1009400042019093430159D120E030E44CE156E458
:10095000B9D008D224EB32EA41E959E343D22FE07F
:100960003FEC4BE55BE346D09B01AC0160E070E0FF
:1009700080E89FE3A7D0F89423E333E948E853E401
:1009800038D060933A0170933B0180933C0190937F
:100990003D01789410923901109238011092330180
:1009A0001092320181E090E090933F0180933E01EC
:1009B00008958DE08DB988E887B988E18AB92A9AC7
:1009C000589A2E98F3DECCDE789454DF811190DFB4
:1009D00080913E0190913F01019709F400DF2FEFD4
:1009E00081EE94E0215080409040E1F700C000008B
:1009F000ECCF5058BB27AA270ED075C166D130F076
:100A00006BD120F031F49F3F11F41EF45BC10EF462
:100A1000E095E7FB51C1E92F77D180F3BA17620760
:100A200073078407950718F071F49EF58FC10EF4D3
:100A3000E0950B2EBA2FA02D0B01B90190010C01EE
:100A4000CA01A0011124FF27591B99F0593F50F406
:100A5000503E68F11A16F040A22F232F342F44275E
:100A6000585FF3CF469537952795A795F040539556
:100A7000C9F77EF41F16BA0B620B730B840BBAF026
:100A80009150A1F0FF0FBB1F661F771F881FC2F791
:100A90000EC0BA0F621F731F841F48F487957795A5
:100AA0006795B795F7959E3F08F0B3CF9395880F5C
:100AB00008F09927EE0F979587950895D9D008F4F7
:100AC00081E008950CD00FC107D140F0FED030F086
:100AD00021F45F3F19F0F0C0511139C1F3C014D1B6
:100AE00098F39923C9F35523B1F3951B550BBB27F5
:100AF000AA2762177307840738F09F5F5F4F220FA2
:100B0000331F441FAA1FA9F333D00E2E3AF0E0E89A
:100B100030D091505040E695001CCAF729D0FE2FE6
:100B200027D0660F771F881FBB1F26173707480778
:100B3000AB07B0E809F0BB0B802DBF01FF2793582E
:100B40005F4F2AF09E3F510568F0B6C000C15F3F7D
:100B5000ECF3983EDCF3869577956795B795F79516
:100B60009F5FC9F7880F911D9695879597F908950E
:100B7000E1E0660F771F881FBB1F621773078407AA
:100B8000BA0720F0621B730B840BBA0BEE1F88F7B9
:100B9000E095089504D06894B111D9C00895BCD0EF
:100BA00088F09F5790F0B92F9927B751A0F0D1F056
:100BB000660F771F881F991F1AF0BA95C9F712C0E0
:100BC000B13081F0C3D0B1E00895C0C0672F782F55
:100BD0008827B85F39F0B93FCCF38695779567954C
:100BE000B395D9F73EF490958095709561957F4FB8
:100BF0008F4F9F4F0895E89409C097FB3EF490955E
:100C00008095709561957F4F8F4F9F4F9923A9F0E5
:100C1000F92F96E9BB279395F69587957795679574
:100C2000B795F111F8CFFAF4BB0F11F460FF1BC0B8
:100C30006F5F7F4F8F4F9F4F16C0882311F096E94B
:100C400011C0772321F09EE8872F762F05C06623F9
:100C500071F096E8862F70E060E02AF09A95660FB2
:100C6000771F881FDAF7880F9695879597F908956B
:100C7000990F0008550FAA0BE0E8FEEF16161706AD
:100C8000E807F907C0F012161306E407F50798F015
:100C9000621B730B840B950B39F40A2661F0232B2E
:100CA000242B252B21F408950A2609F4A140A695AA
:100CB0008FEF811D811D089597F99F6780E870E08F
:100CC00060E008959FEF80EC089500240A941616C2
:100CD000170618060906089500240A94121613062A
:100CE000140605060895092E0394000C11F48823B8
:100CF00052F0BB0F40F4BF2B11F460FF04C06F5FD4
:100D00007F4F8F4F9F4F089557FD9058440F551FA9
:100D100059F05F3F71F04795880F97FB991F61F07D
:100D20009F3F79F087950895121613061406551FF4
:100D3000F2CF4695F1DF08C0161617061806991F60
:100D4000F1CF86957105610508940895E894BB2755
:100D500066277727CB0197F908950EF0AEC0B2CF82
:100D60006894AACFD9DFC8F39923D1F3C6F3DF93F0
:100D7000CF931F930F93FF92C92FDD2788232AF06B
:100D80002197660F771F881FDAF720E030E040E8F0
:100D90005FEB9FE3883920F0803E30F021968F771B
:100DA00029DEE8E2F0E003C025DEE5E5F0E093D0DF
:100DB0008B01BE01EC01FB2E6F5771097595771FF2
:100DC000880B990B1ADF28E132E741E35FE315D086
:100DD000AF2D9801AE01FF900F911F91CF91DF9140
:100DE0001ADE81CF0AD07FCF70DF28F075DF18F0D0
:100DF000952309F061CF66CFAACF86DFA8F39923A8
:100E0000D9F35523C9F3950F50E0551FAA27EE27B4
:100E1000FF27BB2700240894679520F4E20FF31FF7
:100E2000B41F0A1E220F331F441FAA1F6695A9F77D
:100E3000779530F4F30FB41F0A1E121E08F4639561
:100E4000330F441FAA1F221F769599F7879520F428
:100E5000B40F0A1E121E631F440FAA1F221F331F46
:100E60008695A9F7862F712D602D11249F5750402C
:100E70008AF0E1F088234AF0EE0FFF1FBB1F661FC8
:100E8000771F881F91505040A9F79E3F510570F081
:100E900013CF5DCF5F3FECF3983EDCF386957795FB
:100EA0006795B795F795E7959F5FC1F7FE2B880F7C
:100EB000911D9695879597F908959F3F31F0915030
:100EC00020F4879577956795B795880F911D96952E
:100ED000879597F90895DF93CF931F930F93FF9210
:100EE000EF92DF927B018C01689405C0DA2EEF014E
:100EF00084DFFE01E894A5912591359145915591A6
:100F0000AEF3EF0188DDFE019701A801DA9479F7CD
:100F1000DF90EF90FF900F911F91CF91DF91089597
:100F2000EF920F931F93CF93DF93E80147FD02C029
:100F300034E001C034E1042E000C550B57FF03C010
:100F4000519541955109E32E022F242FAE0107D070
:100F5000CE01DF91CF911F910F91EF900895A9E0FD
:100F6000B0E0E4EBF7E030C26A01122FB02E2BE3C1
:100F7000201720F0FF24F394F00E02C02CE3F22E91
:100F80000F2D27E0AE014F5F5F4F40D1BC0149817B
:100F9000842F8970813031F0E1FC06C0E0FE06C08C
:100FA00090E205C09DE203C09BE201C090E05E2D8F
:100FB000507143FF3CC0911102C083E001C084E046
:100FC000811718F4212F281B01C020E051110BC0FC
:100FD000F601822F30E2882319F031938150FBCF44
:100FE000C20ED11C20E0992329F0D6019C93F60172
:100FF00031966F01C6010396E2FE0AC03EE4D601B7
:101000003C9341E411964C93119712963C9306C081
:101010003EE6F601308341E641833283FC01322F04
:1010200040E2332309F442C041933150FACF42FFEA
:1010300044C0911102C083E001C084E0811718F41C
:10104000212F281B01C020E051110BC0F601822F77
:1010500030E2882319F031938150FBCFC20ED11CAE
:1010600020E0992329F0D6019C93F60131966F0177
:10107000C6010396E2FE0BC039E4D6013C933EE480
:1010800011963C93119736E412963C9307C039E6CB
:10109000F60130833EE6318336E63283FC01322F9F
:1010A00040E2332319F041933150FBCFFC01E20FB2
:1010B000F11D10828EEF9FEFA6C021E030E091116C
:1010C00002C020E030E0161617061CF4FB01319632
:1010D00002C0E1E0F0E02E0F3F1FBB2021F0EB2D1E
:1010E000F0E0319602C0E0E0F0E02E0F3F1FE12F6C
:1010F000F0E02E173F071CF4121B212F01C020E047
:101100008E2D887159F4F601822F30E2882319F070
:1011100031938150FBCFC20ED11C20E0992329F0DE
:10112000D6019C93F60131966F0151110BC0F60167
:10113000822F90E3882319F091938150FBCFC20E48
:10114000D11C20E00F2D060F9A81342F307144FFFF
:1011500003C0913309F40150101624F4093018F03B
:1011600008E001C001E0AB0177FF02C040E050E0C1
:10117000FB01E41BF50BA1E0B0E0AC0FBD1FEA0FD3
:10118000FB1F8EE2A82E4B01801A91080B2D10E058
:101190001195019511094F3FBFEF5B0721F4D6016F
:1011A000AC9211966D01641775072CF084169506A4
:1011B00014F4818101C080E3415051093196D60178
:1011C00011967D014017510724F0D6018C936701D9
:1011D000E2CF6417750739F4963320F4953319F488
:1011E000311101C081E3F6018083F701822F90E283
:1011F000882319F091938150FBCFF701E20FF11D85
:10120000108280E090E02996ECE0FAC0283008F0E7
:1012100027E03327DA01990F311D87FD9160009691
:101220006105710539F432602E5F3D9330E32A95F4
:10123000E1F708959F3F30F080387105610509F0AE
:101240003C5F3C5F3D93913008F08068911DDF93D7
:10125000CF931F930F93FF92EF92192F987F96953C
:10126000E92F96959695E90FFF27E452FF4F9927AE
:101270003327EE24FF24A701E70105900894079483
:1012800028F4360FE71EF81E491F511D660F771F01
:10129000881F991F0694A1F70590079428F4E70E7C
:1012A000F81E491F561FC11D770F881F991F661F03
:1012B0000694A1F70590079428F4F80E491F561FCD
:1012C000C71FD11D880F991F661F771F0694A1F7AE
:1012D0000590079420F4490F561FC71FD81F990F78
:1012E000661F771F881F0694A9F7849110951770C1
:1012F00041F0D695C79557954795F794E7941A9579
:10130000C1F7E2E8F0E06894159015913591659188
:10131000959105907FE27395E118F10A430B560B06
:10132000C90BD009C0F7E10CF11E431F561FC91F9E
:10133000D01D7EF4703311F48A95E6CFE894015005
:1013400030F0080F0AF40027021708F4202F239525
:10135000022F7A3328F079E37D932A95E9F710C0BC
:101360007D932A9589F606949795679537951795F5
:101370001794E118F10A430B560BC90BD00998F0EA
:1013800023957E9173957A3308F070E37C93201354
:10139000B8F77E9170617D9330F0839571E37D9312
:1013A00070E32A95E1F71124EF90FF900F911F91C0
:1013B000CF91DF91992787FD909508952F923F92C5
:1013C0004F925F926F927F928F929F92AF92BF9255
:1013D000CF92DF92EF92FF920F931F93CF93DF9301
:1013E000CDB7DEB7CA1BDB0B0FB6F894DEBF0FBE5E
:1013F000CDBF09942A88398848885F846E847D84AB
:101400008C849B84AA84B984C884DF80EE80FD80AC
:101410000C811B81AA81B981CE0FD11D0FB6F89422
:0E142000DEBF0FBECDBFED010895F894FFCFE3
:10142E00456E672E20436F6D702E205546534D002E
:10143E00202048656C6C6F20576F726C6420200002
:10144E0054656D703A20002043004144433A200019
:00000001FF
