:1000000013C02DC02CC02BC02AC029C028C027C0B7
:1000100026C025C024C023C016C421C020C01FC0D4
:100020001EC01DC01CC01BC011241FBECFEFD2E0DC
:10003000DEBFCDBF11E0A0E0B1E0EEE0F0E102C034
:1000400005900D92AC34B107D9F721E0ACE4B1E0F2
:1000500001C01D92A036B207E1F7D2D4D6C7D0CFE7
:10006000672B09F08BC0009711F4709808958130C8
:10007000910511F4719808958230910511F47298E8
:1000800008958330910511F4739808958A3091058D
:1000900011F4289808958B30910511F4299808954A
:1000A0008C30910511F42A9808958D30910511F442
:1000B0002B9808958E30910511F42C9808958F3067
:1000C000910511F42D9808958031910511F42E9821
:1000D00008958131910511F42F9808958431910587
:1000E00011F4409808958531910511F441980895CF
:1000F0008631910511F4429808958731910511F4E4
:10010000439808958831910511F4449808958931F0
:10011000910511F4459808958A31910511F4469896
:1001200008958B31910511F4479808958E3191050A
:1001300011F4589808958F31910511F45998089544
:100140008032910511F45A9808958132910511F485
:100150005B9808958232910511F45C98089583327A
:10016000910511F45D9808958432910511F45E981B
:100170000895859709F08BC05F980895009711F452
:10018000709A08958130910511F4719A0895823022
:10019000910511F4729A08958330910511F4739AC0
:1001A00008958A30910511F4289A08958B309105AD
:1001B00011F4299A08958C30910511F42A9A089522
:1001C0008D30910511F42B9A08958E30910511F41C
:1001D0002C9A08958F30910511F42D9A089580314D
:1001E000910511F42E9A08958131910511F42F9AF9
:1001F00008958431910511F4409A0895853191054F
:1002000011F4419A08958631910511F4429A0895A6
:100210008731910511F4439A08958831910511F4BD
:10022000449A08958931910511F4459A08958A31C7
:10023000910511F4469A08958B31910511F4479A6E
:1002400008958E31910511F4589A08958F319105D2
:1002500011F4599A08958032910511F45A9A08952B
:100260008132910511F45B9A08958232910511F45F
:100270005C9A08958332910511F45D9A0895843251
:10028000910511F45E9A0895859709F45F9A08958F
:10029000CF93C82F80FF03C061E070E002C060E030
:1002A00070E080E090E0DCDEC1FF03C061E070E060
:1002B00002C060E070E081E090E0D2DEC2FF03C0E7
:1002C00061E070E002C060E070E082E090E0C8DED3
:1002D000C3FF03C061E070E002C060E070E083E053
:1002E00090E0BEDEC4FF03C061E070E002C060E0E9
:1002F00070E081E290E0B4DEC5FF03C061E070E031
:1003000002C060E070E082E290E0AADEC6FF03C0B7
:1003100061E070E002C060E070E082E090E0A0DEAA
:10032000C7FF03C061E070E002C060E070E083E0FE
:1003300090E0CF9195CECF93C82F60E070E08BE135
:1003400090E08EDE8C2FA4DF61E070E080E090E032
:1003500087DE8FEC97E00197F1F700C0000060E0C6
:1003600070E080E090E07CDE8FEC97E00197F1F7A1
:1003700000C00000CF91089581E0DDCF813011F4FD
:1003800080E803C0823019F480EC860FD4CF089542
:1003900060E070E08BE190E063DE60E070E080E0C0
:1003A00090E05EDE8FE39CE90197F1F700C000006A
:1003B00080E3C1DF8FE097E20197F1F700C0000012
:1003C00080E3B9DF8FEC97E00197F1F700C0000000
:1003D00080E3B1DF8FE19EE40197F1F700C00000F8
:1003E00088E3A9DF8CE0A7DF81E0A5DF86E0A3CF6B
:1003F000CF93C82F61E070E08BE190E031DE8C2F6D
:1004000047DF61E070E080E090E02ADE8FEC97E06B
:100410000197F1F700C0000060E070E080E090E03C
:100420001FDE8FEC97E00197F1F700C00000CF913D
:100430000895CF93DF93EC018991882311F0D8DFE1
:10044000FBCFDF91CF9108958CE175CF88E173CF19
:10045000CF93C82F80FF03C061E070E002C060E06E
:1004600070E081E290E0FCDDC1FF03C061E070E07C
:1004700002C060E070E082E290E0F2DDC2FF03C003
:1004800061E070E002C060E070E082E090E0E8DDF2
:10049000C3FF03C061E070E002C060E070E083E091
:1004A00090E0CF91DDCDCF93C82F60E070E08BE17D
:1004B00090E0D6DD8C2FCCDF61E070E080E090E052
:1004C000CFDD8FEC97E00197F1F700C0000060E00E
:1004D00070E080E090E0C4DD8FEC97E00197F1F7E9
:1004E00000C00000CF910895CF93C82F80E88C0FF3
:1004F0008595859585958595D6DF8C2F8F70CF91C5
:10050000D2CF80E0D0DF81E0CECFCF93813019F41D
:10051000862FCF91E9CF823061F4C62F80EC860F11
:100520008595859585958595BEDF8C2F8F70CF91AC
:10053000BACFCF91089580E08BDF8FE39CE90197DC
:10054000F1F700C0000083E0AEDF8FE097E2019793
:10055000F1F700C0000083E0A6DF8FEE95E501977C
:10056000F1F700C0000083E09EDF82E09CDF82E0C4
:100570009ADF88E098DF80E096DF8CE094DF80E00F
:1005800092DF86E090CFCF93C82F61E070E08BE1DF
:1005900090E066DD8C2F859585958595859558DF4E
:1005A00061E070E080E090E05BDD8FEC97E0019728
:1005B000F1F700C0000060E070E080E090E050DD06
:1005C0008FEC97E00197F1F700C000008C2F8F703F
:1005D0003FDF61E070E080E090E042DD8FEC97E08B
:1005E0000197F1F700C0000060E070E080E090E06B
:1005F00037DD8FEC97E00197F1F700C00000CF9155
:100600000895CF93DF93EC018991882311F0BBDF2C
:10061000FBCFDF91CF91089581E045DF8CE043CFA0
:1006200081E041DF88E03FCF1092B90080E2809303
:10063000B800089594EA9093BC009091BC0097FF95
:10064000FCCF9091B900987F983091F48093BB00D3
:1006500084E88093BC008091BC0087FFFCCF809130
:10066000B900887F883131F0803231F083E008951D
:1006700080E0089581E0089582E0089594EA9093DF
:10068000BC009091BC0097FFFCCF9091B900987F7F
:10069000903191F48093BB0084E88093BC008091FA
:1006A000BC0087FFFCCF8091B900887F803431F097
:1006B000803231F083E0089580E0089581E008956C
:1006C00082E0089584E98093BC008091BC0084FDA1
:1006D000FCCF08951F93CF93DF93C82FD4EA14E87B
:1006E000D093BC008091BC0087FFFCCF8091B90003
:1006F000887F8830A9F7C093BB001093BC0080911D
:10070000BC0087FFFCCF8091B900887F883111F051
:10071000D9DFE6CFDF91CF911F9108958093BB0081
:1007200084E88093BC008091BC0087FFFCCF80915F
:10073000B900887F883221F0803321F082E008956B
:1007400080E0089581E0089584EC8093BC0080915E
:10075000BC0087FFFCCF8091BB0090E0089584E847
:100760008093BC008091BC0087FFFCCF8091BB00D0
:1007700090E0089585FB882780F90895CF93C82FCE
:1007800080ED58DF8C2FCADF81ED78DFDDDF9093BD
:10079000550180935401D8DF9093570180935601FF
:1007A000DEDF9093590180935801CF918BCFCF9387
:1007B000C82F80ED3FDF8C2FB1DF81ED5FDFC4DF1D
:1007C00090935D0180935C01BFDF90935F01809304
:1007D0005E01BADF9093530180935201C0DF909382
:1007E0005B0180935A01CF916DCF1F93CF93DF931D
:1007F000D62F142FC82FC22B80ED1CDF80E08EDF98
:10080000812F8CDF8D2F8ADF8C2F88DFDF91CF91B6
:100810001F9158CF0F931F93CF93DF93082F162F5D
:10082000D42FC22F80ED06DF83E078DF802F76DFC4
:10083000812F74DF8D2F72DF8C2F70DFDF91CF91CE
:100840001F910F913FCF1F920F920FB60F9211245D
:100850002F933F934F935F936F937F938F939F93C8
:10086000AF93BF93EF93FF9381E090E090934F019C
:1008700080934E018091500190915101883E23E078
:10088000920728F0109251011092500105C0019674
:10089000909351018093500180914C0190914D01B2
:1008A000803D27E0920730F010924D0110924C01EC
:1008B0002E9805C0019690934D0180934C0180E0E5
:1008C00013DE80E011DE80E00FDE80E00DDE80E0F0
:1008D0000BDE80E009DE80E007DE80E005DE80E000
:1008E00003DE80E001DE80E0FFDDFF91EF91BF914C
:1008F000AF919F918F917F916F915F914F913F91B8
:100900002F910F900FBE0F901F90189514DEF9DDF8
:1009100080E0EADD80E091E074DE60E082E0F5DD19
:1009200080E191E06EDE2FEF8DE399E4215080406D
:100930009040E1F700C0000008950F931F93CF93FC
:10094000DF93CDB7DEB764970FB6F894DEBF0FBE66
:10095000CDBF80E013DF809155018F9380915401CA
:100960008F93809157018F93809156018F9380913F
:1009700059018F93809158018F9380E291E09F936A
:100980008F938E010F5F1F4F1F930F935AD0B9DDC6
:1009900080E0AADDC80135DE83E009DF80915B01DC
:1009A0008F9380915A018F93809153018F938091FF
:1009B00052018F9380915F018F9380915E018F939D
:1009C00087E391E09F938F931F930F933AD060E05A
:1009D00082E09BDDC80115DE10924F0110924E019E
:1009E0000FB6F894DEBF0FBECDBF64960FB6F89475
:1009F000DEBF0FBECDBFDF91CF911F910F91089544
:100A00008DE08DB98FEF84B988E887B988E18AB91C
:100A10002A9A589A2E9A7ADF85B58B6085BD8CE725
:100A200087BD80916E00826080936E00FDDD7894BA
:100A300080914E0190914F0181309105E9F77DDF62
:100A4000F7CFAEE0B0E0E6E2F5E0B6C20D891E8970
:100A500086E08C831A8309838FEF9FE79E838D83C3
:100A6000AE01475E5F4F6F89788DCE01019608D049
:100A7000EF81F885E00FF11F10822E96E4E0B8C2F6
:100A8000ABE0B0E0E5E4F5E089C26C017B018A01EE
:100A9000FC0117821682838181FFC0C1CE010196BD
:100AA0003C01F6019381F70193FD859193FF8191BC
:100AB0007F01882309F4AEC1853239F493FD859115
:100AC00093FF81917F01853221F4B60190E0C1D17D
:100AD000E8CF912C212C312CFFE1F315E0F08B3283
:100AE00079F038F4803279F08332A9F4232D206133
:100AF00010C08D3259F0803371F4232D216009C06C
:100B0000832D8260382EE32DE46022C0F32DF8603F
:100B100025C0322E27C037FC2DC020ED280F2A30EB
:100B200088F436FE06C0892D6AE02FD2922E980EE8
:100B300019C0822D6AE029D2222E280E832D8062D0
:100B4000382E10C08E3231F436FC64C1E32DE064DF
:100B50003E2E08C08C3621F4F32DF0683F2E02C0E3
:100B6000883641F4F70193FD859193FF81917F01D0
:100B70008111B2CF982F9F7D9554933028F40C5F4C
:100B80001F4F2FE329830DC0833631F0833771F077
:100B9000833509F055C020C0F801808189830E5F3C
:100BA0001F4F88248394912C530112C02801F2E036
:100BB0004F0E511CF801A080B18036FE03C0692D94
:100BC00070E002C06FEF7FEFC50138D14C018201A8
:100BD000F32DFF773F2E15C0280122E0420E511C55
:100BE000F801A080B18036FE03C0692D70E002C01C
:100BF0006FEF7FEFC50117D14C01F32DF0683F2E49
:100C0000820133FC19C0822D90E088169906A0F469
:100C1000B60180E290E01DD12A94F5CFF50137FCB2
:100C2000859137FE81915F01B60190E012D12110CC
:100C30002A9421E0821A91088114910479F7E1C085
:100C4000843611F0893639F5F80137FE07C0608126
:100C50007181828193810C5F1F4F08C06081718117
:100C6000072E000C880B990B0E5F1F4FF32DFF769C
:100C70003F2E97FF09C090958095709561957F4FA5
:100C80008F4F9F4FF0683F2E2AE030E0A3011DD127
:100C9000882E861844C0853731F4232D2F7EB22E3E
:100CA0002AE030E025C0932D997FB92E8F36C1F010
:100CB00018F4883579F0AEC0803719F0883721F004
:100CC000A9C0E92FE061BE2EB4FE0DC0FB2DF4607B
:100CD000BF2E09C034FE0AC0292F2660B22E06C0DE
:100CE00028E030E005C020E130E002C020E132E041
:100CF000F801B7FE07C060817181828193810C5F2A
:100D00001F4F06C06081718180E090E00E5F1F4F31
:100D1000A301DBD0882E8618FB2DFF773F2E36FEF1
:100D20000DC0232D2E7FA22E891458F434FE0BC043
:100D300032FC09C0832D8E7EA82E05C0B82CA32CB2
:100D400003C0B82C01C0B92CA4FE0FC0FE01E80DF1
:100D5000F11D8081803321F49A2D997EA92E09C03E
:100D6000A2FE06C0B394B39404C08A2D867809F01D
:100D7000B394A3FC10C0A0FE06C0B21480F4280CEB
:100D8000922C9B180DC0B21458F4B60180E290E08A
:100D900060D0B394F8CFB21418F42B1802C0982C7A
:100DA000212CA4FE0FC0B60180E390E052D0A2FE39
:100DB00016C0A1FC03C088E790E002C088E590E07F
:100DC000B6010CC08A2D867851F0A1FE02C08BE2DC
:100DD00001C080E2A7FC8DE2B60190E03AD0891410
:100DE00030F4B60180E390E034D09A94F8CF8A943E
:100DF000F301E80DF11D8081B60190E02AD0811049
:100E0000F6CF222009F44DCEB60180E290E021D049
:100E10002A94F7CFF6018681978102C08FEF9FEF6A
:100E20002B96E2E1D7C0FC010590615070400110A3
:100E3000D8F7809590958E0F9F1F0895FC01615003
:100E4000704001900110D8F7809590958E0F9F1FEC
:100E500008950F931F93CF93DF93FB01238121FD0F
:100E600003C08FEF9FEF2CC022FF16C04681578131
:100E7000248135814217530744F4A081B1819D013B
:100E80002F5F3F4F318320838C93268137812F5FE3
:100E90003F4F3783268314C08B01EC01FB01008494
:100EA000F185E02D0995892BE1F6D80116968D91F3
:100EB0009C911797019617969C938E931697CE0147
:100EC000DF91CF911F910F910895FA01AA27283041
:100ED00061F1203191F1E8946F936E7F6E5F7F4FE7
:100EE0008F4F9F4FAF4FB1E040D0B4E03ED0670F7F
:100EF000781F891F9A1FA11D680F791F8A1F911DD6
:100F0000A11D6A0F711D811D911DA11D22D009F423
:100F100068943F91062E000C3019000C000C30191B
:100F2000305D3193CEF6CF010895462F4770405D76
:100F30004193B3E00FD0C9F7F6CF462F4F70405D15
:100F40004A3318F0495D31FD4052419302D0A9F770
:100F5000EACFB4E0A6959795879577956795BA956A
:100F6000C9F700976105710508959B01AC010A2E30
:100F700006945795479537952795BA95C9F7620F07
:100F8000731F841F951FA01D0895002480FD060E69
:100F9000660F11F08695D1F7802D08952F923F921C
:100FA0004F925F926F927F928F929F92AF92BF9279
:100FB000CF92DF92EF92FF920F931F93CF93DF9325
:100FC000CDB7DEB7CA1BDB0B0FB6F894DEBF0FBE82
:100FD000CDBF09942A88398848885F846E847D84CF
:100FE0008C849B84AA84B984C884DF80EE80FD80D1
:100FF0000C811B81AA81B981CE0FD11D0FB6F89447
:0E100000DEBF0FBECDBFED010895F894FFCF07
:10100E00456E672E20436F6D702E205546534D0052
:10101E00202048656C6C6F20576F726C6420200026
:10102E00484F52413A20253032783A253032783ABC
:10103E0025303278202000444154413A2025303268
:0C104E00782F253032782F2530327800C2
:00000001FF
