:1000000090C0A2C0A1C0A0C09FC09EC09DC09CC007
:100010009BC09AC099C098C097C096C095C094C024
:1000200093C092C091C090C000407A10F35A00A0D3
:10003000724E18090010A5D4E80000E876481700B1
:1000400000E40B54020000CA9A3B000000E1F505F1
:10005000000080969800000040420F000000A0863B
:1000600001000000102700000000E803000000006D
:100070006400000000000A00000000000100000011
:1000800000002C76D888DC674F0823DFC1DFAE592B
:10009000E1B1B796E5E3E453C63AE651997696E8BE
:1000A000E6C28426EB898C9B62ED407C6FFCEFBC42
:1000B0009C9F40F2BAA56FA5F490055A2AF75C936D
:1000C0006B6CF9676DC11BFCE0E40D47FEF520E6A3
:1000D000B500D0ED902E0300943577050080841E86
:1000E000080000204E0A000000C80C333333330FE1
:1000F000986E12831141EF8D2114893BE65516CF7E
:10010000FEE6DB18D1844B381BF77C1D901DA4BB89
:10011000E424203284725E228100C9F124ECA1E53E
:100120003D2711241FBECFEFD2E0DEBFCDBF11E0CF
:10013000A0E0B1E0E0EFF0E102C005900D92A8343C
:10014000B107D9F7ECD3D2C75BCF672B09F08BC0CF
:10015000009711F4709808958130910511F4719809
:1001600008958230910511F47298089583309105B5
:1001700011F4739808958A30910511F42898089520
:100180008B30910511F4299808958C30910511F464
:100190002A9808958D30910511F42B9808958E308A
:1001A000910511F42C9808958F30910511F42D9834
:1001B00008958031910511F42E98089581319105AB
:1001C00011F42F9808958431910511F44098089501
:1001D0008531910511F4419808958631910511F406
:1001E000429808958731910511F443980895883114
:1001F000910511F4449808958931910511F44598B9
:1002000008958A31910511F4469808958B3191052E
:1002100011F4479808958E31910511F45898089576
:100220008F31910511F4599808958032910511F498
:100230005A9808958132910511F45B98089582329D
:10024000910511F45C9808958332910511F45D983D
:1002500008958432910511F45E980895859709F008
:100260008BC05F980895009711F4709A08958130BB
:10027000910511F4719A08958230910511F4729AE2
:1002800008958330910511F4739A08958A30910589
:1002900011F4289A08958B30910511F4299A089544
:1002A0008C30910511F42A9A08958D30910511F43E
:1002B0002B9A08958E30910511F42C9A08958F3061
:1002C000910511F42D9A08958031910511F42E9A1B
:1002D00008958131910511F42F9A08958431910583
:1002E00011F4409A08958531910511F4419A0895C9
:1002F0008631910511F4429A08958731910511F4E0
:10030000439A08958831910511F4449A08958931EA
:10031000910511F4459A08958A31910511F4469A90
:1003200008958B31910511F4479A08958E31910506
:1003300011F4589A08958F31910511F4599A08953E
:100340008032910511F45A9A08958132910511F481
:100350005B9A08958232910511F45C9A0895833274
:10036000910511F45D9A08958432910511F45E9A15
:100370000895859709F45F9A0895CF93C82F80FF59
:1003800003C061E070E002C060E070E080E090E0F7
:10039000DCDEC1FF03C061E070E002C060E070E03D
:1003A00081E090E0D2DEC2FF03C061E070E002C0F5
:1003B00060E070E082E090E0C8DEC3FF03C061E06F
:1003C00070E002C060E070E083E090E0BEDEC4FF59
:1003D00003C061E070E002C060E070E081E290E0A4
:1003E000B4DEC5FF03C061E070E002C060E070E011
:1003F00082E290E0AADEC6FF03C061E070E002C0C6
:1004000060E070E082E090E0A0DEC7FF03C061E042
:1004100070E002C060E070E083E090E0CF9195CEA4
:10042000CF93C82F60E070E08BE190E08EDE8C2FE0
:10043000A4DF61E070E080E090E087DE8FEC97E081
:100440000197F1F700C0000060E070E080E090E00C
:100450007CDE8FEC97E00197F1F700C00000CF91B0
:10046000089581E0DDCF813011F480E803C082304F
:1004700019F480EC860FD4CF089560E070E08BE132
:1004800090E063DE60E070E080E090E05EDE8FE3AD
:100490009CE90197F1F700C0000080E3C1DF8FE025
:1004A00097E20197F1F700C0000080E3B9DF8FEC1D
:1004B00097E00197F1F700C0000080E3B1DF8FE122
:1004C0009EE40197F1F700C0000088E3A9DF8CE00B
:1004D000A7DF81E0A5DF86E0A3CFCF93C82F61E03F
:1004E00070E08BE190E031DE8C2F47DF61E070E05F
:1004F00080E090E02ADE8FEC97E00197F1F700C0F2
:10050000000060E070E080E090E01FDE8FEC97E09C
:100510000197F1F700C00000CF910895CF93DF93CA
:10052000EC018991882311F0D8DFFBCFDF91CF91C7
:1005300008958CE175CF88E173CFCF93C82F80FFEA
:1005400003C061E070E002C060E070E081E290E032
:10055000FCDDC1FF03C061E070E002C060E070E05C
:1005600082E290E0F2DDC2FF03C061E070E002C011
:1005700060E070E082E090E0E8DDC3FF03C061E08E
:1005800070E002C060E070E083E090E0CF91DDCDEC
:10059000CF93C82F60E070E08BE190E0D6DD8C2F28
:1005A000CCDF61E070E080E090E0CFDD8FEC97E0A1
:1005B0000197F1F700C0000060E070E080E090E09B
:1005C000C4DD8FEC97E00197F1F700C00000CF91F8
:1005D0000895CF93C82F80E88C0F859585958595D4
:1005E0008595D6DF8C2F8F70CF91D2CF80E0D0DF72
:1005F00081E0CECFCF93813019F4862FCF91E9CF10
:10060000823061F4C62F80EC860F8595859585959F
:100610008595BEDF8C2F8F70CF91BACFCF91089583
:1006200080E08BDF8FE39CE90197F1F700C00000C9
:1006300083E0AEDF8FE097E20197F1F700C00000A2
:1006400083E0A6DF8FEE95E50197F1F700C000008B
:1006500083E09EDF82E09CDF82E09ADF88E098DF23
:1006600080E096DF8CE094DF80E092DF86E090CF40
:10067000CF93C82F61E070E08BE190E066DD8C2FB6
:10068000859585958595859558DF61E070E080E0DA
:1006900090E05BDD8FEC97E00197F1F700C0000080
:1006A00060E070E080E090E050DD8FEC97E0019733
:1006B000F1F700C000008C2F8F703FDF61E070E029
:1006C00080E090E042DD8FEC97E00197F1F700C009
:1006D000000060E070E080E090E037DD8FEC97E0B4
:1006E0000197F1F700C00000CF910895CF93DF93F9
:1006F000EC018991882311F0BBDFFBCFDF91CF9113
:10070000089581E045DF8CE043CF81E041DF88E060
:100710003FCFCF92DF92EF92FF920F931F93CF9331
:10072000DF9300D000D01F92CDB7DEB78C017B01E4
:10073000FE01319685E0DF011D928A95E9F73B9A2B
:10074000439ABFEF20E782E0B15020408040E1F7BC
:1007500000C000004398A7EEB3E01197F1F700C086
:100760000000439A3B98BAE6BA95F1F700C0339B74
:1007700002C08FEF84C025ED2A95F1F70000339B6E
:10078000F8CF85ED8A95F1F70000BE016A5F7F4FD3
:10079000A1E0B0E027E030E080E049EC50E03399A0
:1007A00004C041505109D9F7E4CF90E59A95F1F78B
:1007B000339B07C0AD01022E01C0440F0A94EAF733
:1007C000842B49EC50E0339B04C041505109D9F7C8
:1007D000D0CF2150310908F781936E177F07D1F6EA
:1007E0003B9A439AAFEFB0E7E2E0A150B040E0405F
:1007F000E1F700C0000069817A81D62EC72E6B8197
:100800007C8176276727762799818A81980F8B814B
:10081000980F2C81920F8D819813ABCF77FF12C068
:100820007F7780E090E04FD120E030E040E251E47B
:10083000E2D0DC01CB01B058F80180839183A28320
:10084000B3830EC080E090E03ED120E030E040E293
:1008500051E4D1D0D8016D937D938D939C931397E0
:10086000B60180E090E02FD120E030E040E251E49A
:10087000C2D0F701608371838283938380E00F90FD
:100880000F900F900F900F90DF91CF911F910F91CC
:10089000FF90EF90DF90CF900895CF93DF9300D03B
:1008A00000D0CDB7DEB719821A821B821C82BE012E
:1008B0006F5F7F4F2EDF0F900F900F900F90DF91A3
:1008C000CF910895CF93DF9300D000D0CDB7DEB79E
:1008D00019821A821B821C82BC01CE01019619DF8B
:1008E0000F900F900F900F90DF91CF91089511CF3F
:1008F00097DE7CDE80E06DDE80E091E0F7DE60E098
:1009000082E078DE80E191E0F1DE2FEF8DE399E483
:10091000215080409040E1F700C000000895CF933F
:10092000DF93CDB7DEB7CC56D1090FB6F894DEBF52
:100930000FBECDBF8DE08DB988E887B988E18AB94F
:100940002A9A589A2E9AD4DF7894AD961CAE1DAE92
:100950001EAE1FAEAD97A9961CAE1DAE1EAE1FAE4D
:10096000A997BE016B597F4FCE0187599F4FD1DEAA
:100970008F3F59F13BDE80E02CDEAD966CAD7DAD56
:100980008EAD9FADAD978E010F5F1F4F22E042E00D
:1009900028D180E291E0AADEC801A8DE87E291E0DA
:1009A000A5DE60E082E026DEA9966CAD7DAD8EAD61
:1009B0009FADA99722E042E014D18AE291E096DE51
:1009C000C80194DE82E391E00BC010DE86E001DE18
:1009D00084E391E08BDE62E082E00CDE8AE391E06A
:1009E00085DE2FEF8EE994E2215080409040E1F7C0
:1009F00000C00000B6CF0CD0BAC0B2D040F0A9D031
:100A000030F021F45F3F19F09BC05111E4C09EC04B
:100A1000BFD098F39923C9F35523B1F3951B550B18
:100A2000BB27AA2762177307840738F09F5F5F4FC1
:100A3000220F331F441FAA1FA9F333D00E2E3AF002
:100A4000E0E830D091505040E695001CCAF729D01C
:100A5000FE2F27D0660F771F881FBB1F261737076B
:100A60004807AB07B0E809F0BB0B802DBF01FF279B
:100A700093585F4F2AF09E3F510568F061C0ABC0AC
:100A80005F3FECF3983EDCF3869577956795B795D5
:100A9000F7959F5FC9F7880F911D9695879597F9F0
:100AA0000895E1E0660F771F881FBB1F6217730769
:100AB0008407BA0720F0621B730B840BBA0BEE1F7E
:100AC00088F7E0950895E89409C097FB3EF4909567
:100AD0008095709561957F4F8F4F9F4F9923A9F017
:100AE000F92F96E9BB279395F695879577956795A6
:100AF000B795F111F8CFFAF4BB0F11F460FF1BC0EA
:100B00006F5F7F4F8F4F9F4F16C0882311F096E97C
:100B100011C0772321F09EE8872F762F05C066232A
:100B200071F096E8862F70E060E02AF09A95660FE3
:100B3000771F881FDAF7880F9695879597F908959C
:100B400097F99F6780E870E060E008959FEF80EC80
:100B5000089500240A941616170618060906089523
:100B600000240A9412161306140605060895092E89
:100B70000394000C11F4882352F0BB0F40F4BF2BF8
:100B800011F460FF04C06F5F7F4F8F4F9F4F089538
:100B900057FD9058440F551F59F05F3F71F047952E
:100BA000880F97FB991F61F09F3F79F08795089513
:100BB000121613061406551FF2CF4695F1DF08C032
:100BC000161617061806991FF1CF8695710561054F
:100BD00008940895E894BB2766277727CB0197F9F7
:100BE0000895EF920F931F93CF93DF93E80147FD92
:100BF00002C034E001C034E1042E000C550B57FF55
:100C000003C0519541955109E32E022F242FAE01C7
:100C100007D0CE01DF91CF911F910F91EF900895F2
:100C2000A9E0B0E0E5E1F6E030C26A01122FB02E93
:100C30002BE3201720F0FF24F394F00E02C02CE3E6
:100C4000F22E0F2D27E0AE014F5F5F4F40D1BC0168
:100C50004981842F8970813031F0E1FC06C0E0FECB
:100C600006C090E205C09DE203C09BE201C090E097
:100C70005E2D507143FF3CC0911102C083E001C062
:100C800084E0811718F4212F281B01C020E05111A6
:100C90000BC0F601822F30E2882319F03193815086
:100CA000FBCFC20ED11C20E0992329F0D6019C93E2
:100CB000F60131966F01C6010396E2FE0AC03EE4DA
:100CC000D6013C9341E411964C93119712963C93B4
:100CD00006C03EE6F601308341E641833283FC01E3
:100CE000322F40E2332309F442C041933150FACF0E
:100CF00042FF44C0911102C083E001C084E081172B
:100D000018F4212F281B01C020E051110BC0F6015F
:100D1000822F30E2882319F031938150FBCFC20E2D
:100D2000D11C20E0992329F0D6019C93F60131963D
:100D30006F01C6010396E2FE0BC039E4D6013C9375
:100D40003EE411963C93119736E412963C9307C00B
:100D500039E6F60130833EE6318336E63283FC0124
:100D6000322F40E2332319F041933150FBCFFC0185
:100D7000E20FF11D10828EEF9FEFA6C021E030E060
:100D8000911102C020E030E0161617061CF4FB019A
:100D9000319602C0E1E0F0E02E0F3F1FBB2021F0B2
:100DA000EB2DF0E0319602C0E0E0F0E02E0F3F1FA7
:100DB000E12FF0E02E173F071CF4121B212F01C07A
:100DC00020E08E2D887159F4F601822F30E28823BD
:100DD00019F031938150FBCFC20ED11C20E0992332
:100DE00029F0D6019C93F60131966F0151110BC089
:100DF000F601822F90E3882319F091938150FBCF65
:100E0000C20ED11C20E00F2D060F9A81342F3071B5
:100E100044FF03C0913309F40150101624F4093043
:100E200018F008E001C001E0AB0177FF02C040E02C
:100E300050E0FB01E41BF50BA1E0B0E0AC0FBD1FDF
:100E4000EA0FFB1F8EE2A82E4B01801A91080B2D92
:100E500010E01195019511094F3FBFEF5B0721F499
:100E6000D601AC9211966D01641775072CF08416AB
:100E7000950614F4818101C080E3415051093196F7
:100E8000D60111967D014017510724F0D6018C93AD
:100E90006701E2CF6417750739F4963320F4953370
:100EA00019F4311101C081E3F6018083F701822F2B
:100EB00090E2882319F091938150FBCFF701E20F64
:100EC000F11D108280E090E02996ECE0FAC0283015
:100ED00008F027E03327DA01990F311D87FD916073
:100EE00000966105710539F432602E5F3D9330E361
:100EF0002A95E1F708959F3F30F08038710561052C
:100F000009F03C5F3C5F3D93913008F08068911D93
:100F1000DF93CF931F930F93FF92EF92192F987F38
:100F20009695E92F96959695E90FFF27EE57FF4F77
:100F300099273327EE24FF24A701E70105900894A1
:100F4000079428F4360FE71EF81E491F511D660F3F
:100F5000771F881F991F0694A1F70590079428F41E
:100F6000E70EF81E491F561FC11D770F881F991FD6
:100F7000661F0694A1F70590079428F4F80E491F00
:100F8000561FC71FD11D880F991F661F771F069414
:100F9000A1F70590079420F4490F561FC71FD81FCB
:100FA000990F661F771F881F0694A9F784911095E3
:100FB000177041F0D695C79557954795F794E794E4
:100FC0001A95C1F7E8E2F0E0689415901591359113
:100FD0006591959105907FE27395E118F10A430BB5
:100FE000560BC90BD009C0F7E10CF11E431F561F69
:100FF000C91FD01D7EF4703311F48A95E6CFE894B2
:10100000015030F0080F0AF40027021708F4202FCF
:101010002395022F7A3328F079E37D932A95E9F717
:1010200010C07D932A9589F6069497956795379514
:1010300017951794E118F10A430B560BC90BD00909
:1010400098F023957E9173957A3308F070E37C9342
:101050002013B8F77E9170617D9330F0839571E332
:101060007D9370E32A95E1F71124EF90FF900F91A3
:101070001F91CF91DF91992787FD909508952F9229
:101080003F924F925F926F927F928F929F92AF9218
:10109000BF92CF92DF92EF92FF920F931F93CF9365
:1010A000DF93CDB7DEB7CA1BDB0B0FB6F894DEBFFC
:1010B0000FBECDBF09942A88398848885F846E8422
:1010C0007D848C849B84AA84B984C884DF80EE806C
:1010D000FD800C811B81AA81B981CE0FD11D0FB675
:1010E000F894DEBF0FBECDBFED010895F894FFCF99
:1010F000456E672E20436F6D702E205546534D0070
:10110000202048656C6C6F20576F726C6420200043
:1011100054656D702E3A0020430048756D69642E49
:101120003A0025004572726F7200444854204E6F99
:081130007420666F756E640007
:00000001FF
