:1000000013C025C024C023C022C021C020C01FC0EF
:100010001EC01DC01CC01BC01AC019C018C017C00C
:1000200016C015C014C013C011241FBECFEFD2E0FC
:10003000DEBFCDBF11E0A0E0B1E0E2ECF8E002C02D
:1000400005900D92A433B107D9F7A9D338C4D8CFFE
:10005000672B09F08BC0009711F4709808958130D8
:10006000910511F4719808958230910511F47298F8
:1000700008958330910511F4739808958A3091059D
:1000800011F4289808958B30910511F4299808955A
:100090008C30910511F42A9808958D30910511F452
:1000A0002B9808958E30910511F42C9808958F3077
:1000B000910511F42D9808958031910511F42E9831
:1000C00008958131910511F42F9808958431910597
:1000D00011F4409808958531910511F441980895DF
:1000E0008631910511F4429808958731910511F4F4
:1000F000439808958831910511F444980895893101
:10010000910511F4459808958A31910511F44698A6
:1001100008958B31910511F4479808958E3191051A
:1001200011F4589808958F31910511F45998089554
:100130008032910511F45A9808958132910511F495
:100140005B9808958232910511F45C98089583328A
:10015000910511F45D9808958432910511F45E982B
:100160000895859709F08BC05F980895009711F462
:10017000709A08958130910511F4719A0895823032
:10018000910511F4729A08958330910511F4739AD0
:1001900008958A30910511F4289A08958B309105BD
:1001A00011F4299A08958C30910511F42A9A089532
:1001B0008D30910511F42B9A08958E30910511F42C
:1001C0002C9A08958F30910511F42D9A089580315D
:1001D000910511F42E9A08958131910511F42F9A09
:1001E00008958431910511F4409A0895853191055F
:1001F00011F4419A08958631910511F4429A0895B7
:100200008731910511F4439A08958831910511F4CD
:10021000449A08958931910511F4459A08958A31D7
:10022000910511F4469A08958B31910511F4479A7E
:1002300008958E31910511F4589A08958F319105E2
:1002400011F4599A08958032910511F45A9A08953B
:100250008132910511F45B9A08958232910511F46F
:100260005C9A08958332910511F45D9A0895843261
:10027000910511F45E9A0895859709F45F9A08959F
:10028000CF93C82F80FF03C061E070E002C060E040
:1002900070E080E090E0DCDEC1FF03C061E070E070
:1002A00002C060E070E081E090E0D2DEC2FF03C0F7
:1002B00061E070E002C060E070E082E090E0C8DEE3
:1002C000C3FF03C061E070E002C060E070E083E063
:1002D00090E0BEDEC4FF03C061E070E002C060E0F9
:1002E00070E081E290E0B4DEC5FF03C061E070E041
:1002F00002C060E070E082E290E0AADEC6FF03C0C8
:1003000061E070E002C060E070E082E090E0A0DEBA
:10031000C7FF03C061E070E002C060E070E083E00E
:1003200090E0CF9195CECF93C82F60E070E08BE145
:1003300090E08EDE8C2FA4DF61E070E080E090E042
:1003400087DE8FEC97E00197F1F700C0000060E0D6
:1003500070E080E090E07CDE8FEC97E00197F1F7B1
:1003600000C00000CF91089581E0DDCF813011F40D
:1003700080E803C0823019F480EC860FD4CF089552
:1003800060E070E08BE190E063DE60E070E080E0D0
:1003900090E05EDE8FE39CE90197F1F700C000007A
:1003A00080E3C1DF8FE097E20197F1F700C0000022
:1003B00080E3B9DF8FEC97E00197F1F700C0000010
:1003C00080E3B1DF8FE19EE40197F1F700C0000008
:1003D00088E3A9DF8CE0A7DF81E0A5DF86E0A3CF7B
:1003E000CF93C82F61E070E08BE190E031DE8C2F7D
:1003F00047DF61E070E080E090E02ADE8FEC97E07C
:100400000197F1F700C0000060E070E080E090E04C
:100410001FDE8FEC97E00197F1F700C00000CF914D
:100420000895CF93DF93EC018991882311F0D8DFF1
:10043000FBCFDF91CF9108958CE175CF88E173CF29
:10044000CF93C82F80FF03C061E070E002C060E07E
:1004500070E081E290E0FCDDC1FF03C061E070E08C
:1004600002C060E070E082E290E0F2DDC2FF03C013
:1004700061E070E002C060E070E082E090E0E8DD02
:10048000C3FF03C061E070E002C060E070E083E0A1
:1004900090E0CF91DDCDCF93C82F60E070E08BE18D
:1004A00090E0D6DD8C2FCCDF61E070E080E090E062
:1004B000CFDD8FEC97E00197F1F700C0000060E01E
:1004C00070E080E090E0C4DD8FEC97E00197F1F7F9
:1004D00000C00000CF910895CF93C82F80E88C0F03
:1004E0008595859585958595D6DF8C2F8F70CF91D5
:1004F000D2CF80E0D0DF81E0CECFCF93813019F42E
:10050000862FCF91E9CF823061F4C62F80EC860F21
:100510008595859585958595BEDF8C2F8F70CF91BC
:10052000BACFCF91089580E08BDF8FE39CE90197EC
:10053000F1F700C0000083E0AEDF8FE097E20197A3
:10054000F1F700C0000083E0A6DF8FEE95E501978C
:10055000F1F700C0000083E09EDF82E09CDF82E0D4
:100560009ADF88E098DF80E096DF8CE094DF80E01F
:1005700092DF86E090CFCF93C82F61E070E08BE1EF
:1005800090E066DD8C2F859585958595859558DF5E
:1005900061E070E080E090E05BDD8FEC97E0019738
:1005A000F1F700C0000060E070E080E090E050DD16
:1005B0008FEC97E00197F1F700C000008C2F8F704F
:1005C0003FDF61E070E080E090E042DD8FEC97E09B
:1005D0000197F1F700C0000060E070E080E090E07B
:1005E00037DD8FEC97E00197F1F700C00000CF9165
:1005F0000895CF93DF93EC018991882311F0BBDF3D
:10060000FBCFDF91CF91089581E045DF8CE043CFB0
:1006100081E041DF88E03FCFCF92DF92EF92FF92FF
:100620000F931F93CF93DF9300D000D01F92CDB7CD
:10063000DEB76C01FE01319685E0DF011D928A95DF
:10064000E9F73B9A439ABFEF20E782E0B1502040A0
:100650008040E1F700C000004398AFE9BCE8119783
:10066000F1F700C00000439A3B98BAE6BA95F1F75B
:1006700000C0339B02C08FEF50C025ED2A95F1F7E3
:100680000000339BF8CF85ED8A95F1F700008E01CD
:100690000A5F1F4FEE24E394F12C27E030E090E056
:1006A00049EC50E0339904C041505109D9F7E3CFE8
:1006B000A0E5AA95F1F7339B07C0A701022E01C060
:1006C000440F0A94EAF7942B49EC50E0339B04C0A2
:1006D00041505109D9F7CFCF2150310908F79193F3
:1006E0000E171F07D1F63B9A439AEFEFF0E722E08F
:1006F000E150F0402040E1F700C0000089813B81DB
:100700009A81980F930F2C81920F2D819213B3CF62
:10071000D6013C93FB01808380E00F900F900F90F7
:100720000F900F90DF91CF911F910F91FF90EF905D
:10073000DF90CF900895CF93DF931F92CDB7DEB7B0
:100740001982BE016F5F7F4F67DF0F90DF91CF91FE
:100750000895CF93DF931F92CDB7DEB71982BC0106
:10076000CE01019659DF0F90DF91CF91089554CFBC
:10077000DADEBFDE80E0B0DE80E091E03ADF60E00C
:1007800082E0BBDE80E191E034DF2FEF8DE399E47E
:10079000215080409040E1F700C000000895CF93C1
:1007A000DF93CDB7DEB7C656D1090FB6F894DEBFDA
:1007B0000FBECDBF8DE08DB988E887B988E18AB9D1
:1007C0002A9A589A2E98D4DF7894A7961FAEA797A6
:1007D000A6961FAEA697BE016B597F4FCE018A59D0
:1007E0009F4F1ADF8F3F11F1A7968FADA7974AE071
:1007F000BE016F5F7F4F082E000C990B2DD079DE64
:1008000080E06ADECE010196F4DEA6968FADA69753
:100810004AE0BE016F5F7F4F082E000C990B1CD081
:1008200060E082E06ADECE0101960BC062DE86E007
:1008300053DE80E291E0DDDE62E082E05EDE86E2B1
:1008400091E0D7DE2FEF8EE994E221508040904076
:10085000E1F700C00000BFCFBB274A3031F4992335
:1008600022F4BDE2909581959F4F01C0BB27FB010B
:100870005527AA27880F991FAA1FA41710F0A41B99
:1008800083955051B9F7A05DAA3308F0A95DA193F3
:10089000009779F7B111B1931192CB0100C0DC013F
:1008A000FC01672F71917723E1F7329704C07C91A7
:1008B0006D9370836291AE17BF07C8F30895F894E3
:0208C000FFCF68
:1008C200456E672E20436F6D702E205546534D00A6
:1008D200202048656C6C6F20576F726C642020007A
:1008E2004572726F7200444854204E6F7420666FD6
:0408F200756E6400BB
:00000001FF
